{"contracts/TradeContract.sol":{"TradeContract":{"abi":[{"inputs":[],"stateMutability":"nonpayable","type":"constructor"},{"inputs":[],"name":"InvalidShortString","type":"error"},{"inputs":[{"internalType":"string","name":"str","type":"string"}],"name":"StringTooLong","type":"error"},{"anonymous":false,"inputs":[],"name":"EIP712DomainChanged","type":"event"},{"anonymous":false,"inputs":[{"indexed":true,"internalType":"bytes32","name":"tradeHash","type":"bytes32"},{"indexed":true,"internalType":"address","name":"funder","type":"address"},{"indexed":false,"internalType":"uint256","name":"amount","type":"uint256"},{"indexed":false,"internalType":"string","name":"currency","type":"string"}],"name":"FundsReceived","type":"event"},{"anonymous":false,"inputs":[{"indexed":true,"internalType":"bytes32","name":"tradeHash","type":"bytes32"},{"indexed":true,"internalType":"address","name":"senderAddress","type":"address"},{"indexed":true,"internalType":"address","name":"receiverAddress","type":"address"},{"indexed":false,"internalType":"uint256","name":"fromAmount","type":"uint256"},{"indexed":false,"internalType":"string","name":"fromCurrency","type":"string"},{"indexed":false,"internalType":"uint256","name":"toAmount","type":"uint256"},{"indexed":false,"internalType":"string","name":"toCurrency","type":"string"},{"indexed":false,"internalType":"address","name":"executor","type":"address"}],"name":"TokensSwapped","type":"event"},{"anonymous":false,"inputs":[{"indexed":true,"internalType":"bytes32","name":"tradeHash","type":"bytes32"},{"indexed":true,"internalType":"address","name":"senderAddress","type":"address"},{"indexed":true,"internalType":"address","name":"receiverAddress","type":"address"},{"indexed":false,"internalType":"uint256","name":"fromAmount","type":"uint256"},{"indexed":false,"internalType":"string","name":"fromCurrency","type":"string"},{"indexed":false,"internalType":"uint256","name":"toAmount","type":"uint256"},{"indexed":false,"internalType":"string","name":"toCurrency","type":"string"},{"indexed":false,"internalType":"uint256","name":"timestamp","type":"uint256"}],"name":"TradeRecorded","type":"event"},{"inputs":[],"name":"DOMAIN_SEPARATOR","outputs":[{"internalType":"bytes32","name":"","type":"bytes32"}],"stateMutability":"view","type":"function"},{"inputs":[],"name":"FUNDS_TYPEHASH","outputs":[{"internalType":"bytes32","name":"","type":"bytes32"}],"stateMutability":"view","type":"function"},{"inputs":[],"name":"TRADE_TYPEHASH","outputs":[{"internalType":"bytes32","name":"","type":"bytes32"}],"stateMutability":"view","type":"function"},{"inputs":[],"name":"eip712Domain","outputs":[{"internalType":"bytes1","name":"fields","type":"bytes1"},{"internalType":"string","name":"name","type":"string"},{"internalType":"string","name":"version","type":"string"},{"internalType":"uint256","name":"chainId","type":"uint256"},{"internalType":"address","name":"verifyingContract","type":"address"},{"internalType":"bytes32","name":"salt","type":"bytes32"},{"internalType":"uint256[]","name":"extensions","type":"uint256[]"}],"stateMutability":"view","type":"function"},{"inputs":[],"name":"getAllStoredTrades","outputs":[{"internalType":"bytes32[]","name":"tradeHashesArray","type":"bytes32[]"},{"components":[{"internalType":"address","name":"senderAddress","type":"address"},{"internalType":"address","name":"receiverAddress","type":"address"},{"internalType":"uint256","name":"fromAmount","type":"uint256"},{"internalType":"string","name":"fromCurrency","type":"string"},{"internalType":"uint256","name":"toAmount","type":"uint256"},{"internalType":"string","name":"toCurrency","type":"string"},{"internalType":"uint256","name":"timestamp","type":"uint256"},{"internalType":"bool","name":"fromFunded","type":"bool"},{"internalType":"bool","name":"toFunded","type":"bool"},{"internalType":"bool","name":"executed","type":"bool"},{"internalType":"uint256","name":"fromFundedAmount","type":"uint256"},{"internalType":"uint256","name":"toFundedAmount","type":"uint256"}],"internalType":"struct TradeContract.StoredTrade[]","name":"tradesArray","type":"tuple[]"}],"stateMutability":"view","type":"function"},{"inputs":[],"name":"getAllTradeHashes","outputs":[{"internalType":"bytes32[]","name":"","type":"bytes32[]"}],"stateMutability":"view","type":"function"},{"inputs":[{"internalType":"bytes32","name":"tradeHash","type":"bytes32"}],"name":"getStoredTrade","outputs":[{"components":[{"internalType":"address","name":"senderAddress","type":"address"},{"internalType":"address","name":"receiverAddress","type":"address"},{"internalType":"uint256","name":"fromAmount","type":"uint256"},{"internalType":"string","name":"fromCurrency","type":"string"},{"internalType":"uint256","name":"toAmount","type":"uint256"},{"internalType":"string","name":"toCurrency","type":"string"},{"internalType":"uint256","name":"timestamp","type":"uint256"},{"internalType":"bool","name":"fromFunded","type":"bool"},{"internalType":"bool","name":"toFunded","type":"bool"},{"internalType":"bool","name":"executed","type":"bool"},{"internalType":"uint256","name":"fromFundedAmount","type":"uint256"},{"internalType":"uint256","name":"toFundedAmount","type":"uint256"}],"internalType":"struct TradeContract.StoredTrade","name":"","type":"tuple"}],"stateMutability":"view","type":"function"},{"inputs":[],"name":"getTradeCount","outputs":[{"internalType":"uint256","name":"","type":"uint256"}],"stateMutability":"view","type":"function"},{"inputs":[{"internalType":"bytes32","name":"tradeHash","type":"bytes32"}],"name":"getTradeStatus","outputs":[{"internalType":"uint8","name":"","type":"uint8"}],"stateMutability":"view","type":"function"},{"inputs":[{"internalType":"bytes32","name":"tradeHash","type":"bytes32"}],"name":"isTradeReady","outputs":[{"internalType":"bool","name":"","type":"bool"}],"stateMutability":"view","type":"function"},{"inputs":[{"internalType":"bytes32","name":"tradeHash","type":"bytes32"},{"internalType":"uint256","name":"amount","type":"uint256"}],"name":"provideFunds","outputs":[],"stateMutability":"payable","type":"function"},{"inputs":[{"internalType":"address","name":"senderAddress","type":"address"},{"internalType":"address","name":"receiverAddress","type":"address"},{"internalType":"uint256","name":"fromAmount","type":"uint256"},{"internalType":"string","name":"fromCurrency","type":"string"},{"internalType":"uint256","name":"toAmount","type":"uint256"},{"internalType":"string","name":"toCurrency","type":"string"},{"internalType":"bytes","name":"signature","type":"bytes"}],"name":"recordTrade","outputs":[],"stateMutability":"nonpayable","type":"function"},{"inputs":[{"internalType":"bytes32","name":"","type":"bytes32"}],"name":"storedTrades","outputs":[{"internalType":"address","name":"senderAddress","type":"address"},{"internalType":"address","name":"receiverAddress","type":"address"},{"internalType":"uint256","name":"fromAmount","type":"uint256"},{"internalType":"string","name":"fromCurrency","type":"string"},{"internalType":"uint256","name":"toAmount","type":"uint256"},{"internalType":"string","name":"toCurrency","type":"string"},{"internalType":"uint256","name":"timestamp","type":"uint256"},{"internalType":"bool","name":"fromFunded","type":"bool"},{"internalType":"bool","name":"toFunded","type":"bool"},{"internalType":"bool","name":"executed","type":"bool"},{"internalType":"uint256","name":"fromFundedAmount","type":"uint256"},{"internalType":"uint256","name":"toFundedAmount","type":"uint256"}],"stateMutability":"view","type":"function"},{"inputs":[{"internalType":"bytes32","name":"tradeHash","type":"bytes32"}],"name":"swapTokens","outputs":[],"stateMutability":"nonpayable","type":"function"},{"inputs":[{"internalType":"uint256","name":"","type":"uint256"}],"name":"tradeHashes","outputs":[{"internalType":"bytes32","name":"","type":"bytes32"}],"stateMutability":"view","type":"function"},{"stateMutability":"payable","type":"receive"}],"evm":{"bytecode":{"linkReferences":{},"object":"610160604081815234620001af576200001882620001b4565b6004825260209182810191630a0d28cb60e31b8084528151946200003c86620001b4565b6001865262000170620000dd60016004848a0195603160f81b96878152620000648a6200020a565b9a6101209b8c52620000768d620003dd565b9a6101409b8c525190209b8c60e0525190209a6101009b808d524660a0528951958691898301933091469186926080929594919560a085019660008051602062001f80833981519152865260208601526040850152606084015260018060a01b0316910152565b0394620000f3601f1996878101835282620001e6565b5190206080523060c0528588516200010b81620001b4565b8381520190815220948487516200012281620001b4565b8381520190815220855160008051602062001f80833981519152948101948552602085019590955260408401524660608401523060808401529192918260a0850103908101835282620001e6565b51902060025551916119f593846200058b853960805184505060a05184505060c05184505060e05184505051835050518261013f015251816101680152f35b600080fd5b604081019081106001600160401b03821117620001d057604052565b634e487b7160e01b600052604160045260246000fd5b601f909101601f19168101906001600160401b03821190821017620001d057604052565b80516020919082811015620002a9575090601f8251116200024857808251920151908083106200023957501790565b82600019910360031b1b161790565b90604051809263305a27a960e01b82528060048301528251908160248401526000935b8285106200028f575050604492506000838284010152601f80199101168101030190fd5b84810182015186860160440152938101938593506200026b565b6001600160401b038111620001d0576000928354926001938481811c91168015620003d2575b83821014620003be57601f811162000388575b5081601f8411600114620003215750928293918392869462000315575b50501b916000199060031b1c191617905560ff90565b015192503880620002ff565b919083601f1981168780528488209488905b888383106200036d575050501062000353575b505050811b01905560ff90565b015160001960f88460031b161c1916905538808062000346565b85870151885590960195948501948793509081019062000333565b85805284601f848820920160051c820191601f860160051c015b828110620003b2575050620002e2565b878155018590620003a2565b634e487b7160e01b86526022600452602486fd5b90607f1690620002cf565b8051602090818110156200046b5750601f8251116200040a57808251920151908083106200023957501790565b90604051809263305a27a960e01b82528060048301528251908160248401526000935b82851062000451575050604492506000838284010152601f80199101168101030190fd5b84810182015186860160440152938101938593506200042d565b9192916001600160401b038111620001d05760019182548381811c911680156200057f575b828210146200056957601f811162000530575b5080601f8311600114620004e3575081929394600092620004d7575b5050600019600383901b1c191690821b17905560ff90565b015190503880620004bf565b90601f198316958460005282600020926000905b8882106200051857505083859697106200035357505050811b01905560ff90565b808785968294968601518155019501930190620004f7565b8360005283601f83600020920160051c820191601f850160051c015b8281106200055c575050620004a3565b600081550184906200054c565b634e487b7160e01b600052602260045260246000fd5b90607f16906200049056fe608080604052600436101561001d575b50361561001b57600080fd5b005b60003560e01c9081631517cfb0146111a3575080632bba58ac146111685780633178ad9c14610a435780633184ff8b146109c25780633644e515146109a4578063382d08fe146109185780633e0df32a146107d757806346bbc6f4146106d65780635ca85e9b146105d05780636850bc60146103955780636c42043914610294578063774073991461024a57806384b0196e14610129578063a3031b771461010b5763df5f0c75146100cf573861000f565b3461010657602036600319011261010657600435600454811015610106576100f8602091611449565b90546040519160031b1c8152f35b600080fd5b34610106576000366003190112610106576020600454604051908152f35b34610106576000366003190112610106576101637f00000000000000000000000000000000000000000000000000000000000000006114ad565b61018c7f00000000000000000000000000000000000000000000000000000000000000006115a7565b6040516020808201928284106001600160401b038511176102345791816101e585946101d7979660405260008452604051978897600f60f81b895260e0858a015260e0890190611365565b908782036040890152611365565b91617a696060870152306080870152600060a087015285830360c0870152519182815201929160005b82811061021d57505050500390f35b83518552869550938101939281019260010161020e565b634e487b7160e01b600052604160045260246000fd5b346101065760203660031901126101065760043560005260036020526020610289604060002061028460018060a01b038254161515611906565b61195d565b60ff60405191168152f35b34610106576020366003190112610106576102ad6118ab565b50600435600052600360205261039160406000206009604051916102d08361130d565b60018060a01b0380825416845260018201541660208401526002810154604084015260405161030d816103068160038601611277565b0382611344565b606084015260048101546080840152604051610330816103068160058601611277565b60a0840152600681015460c084015260ff6007820154818116151560e0860152818160081c16151561010086015260101c161515610120840152600881015461014084015201546101608201526040519182916020835260208301906113a5565b0390f35b34610106576000366003190112610106576004546103b281611496565b6103bf6040519182611344565b818152601f1991826103d082611496565b019260209336858501376103e382611496565b916103f16040519384611344565b808352816103fe82611496565b0160005b8181106105b557505060005b81811061048857505061042c60405193604085526040850190611209565b938385038185015282519081865280860181808460051b8901019501936000975b84891061045a5787870388f35b9091929394958480610476838686600196030188528a516113a5565b9801940198019791909493929461044d565b61049481969396611449565b9054600391821b1c6104a68388611949565b526104b082611449565b905490821b1c60005280845260096040600020610306610505604051946104d68661130d565b60018060a01b038085541687526001850154168987015260028401546040870152604051928380928601611277565b606084015260048101546080840152604051610528816103068160058601611277565b60a0840152600681015460c0840152600781015460ff808216151560e08601526008918181841c16151561010087015260101c161515610120850152810154610140840152015461016082015261057f8286611949565b5261058a8185611949565b50600019811461059f5760010194919461040e565b634e487b7160e01b600052601160045260246000fd5b958093966105c16118ab565b82828801015201959295610402565b34610106576020366003190112610106576004356000526003602052604060002060018060a01b038082541690600183015416916002810154604051916106258361061e8160038501611277565b0384611344565b60ff60048201549361069c6040519561064c876106458160058901611277565b0388611344565b60068501549661068960078701549460096008890154980154986040519c8d9c8d5260208d015260408c01526101808060608d01528b0190611365565b9160808a015288820360a08a0152611365565b9460c0870152818116151560e0870152818160081c16151561010087015260101c1615156101208501526101408401526101608301520390f35b34610106576020366003190112610106576004356000818152600360205260409020805461070e906001600160a01b03161515611906565b600781015460ff8160101c166107995760ff8116908161078b575b50156107385761001b9161174e565b60405162461bcd60e51b815260206004820152602560248201527f426f74682070617274696573206d7573742070726f766964652066756e647320604482015264199a5c9cdd60da1b6064820152608490fd5b60ff915060081c1683610729565b60405162461bcd60e51b8152602060048201526016602482015275151c98591948185b1c9958591e48195e1958dd5d195960521b6044820152606490fd5b60403660031901126101065760043560008181526003602052604090208054602435906001600160a01b039033908216036108f1576108178234146116d2565b60078301600160ff198254161790558160088401555b82541633146000146108c557827f1ccaadb63cb63b6bb5657ee1f006c7f7710edeebf91869610e32bc3898acf63860038401925b604051908152604060208201528061087e33956040830190611277565b0390a3600781015460ff811690816108b6575b816108a7575b5061089e57005b61001b9161174e565b60ff915060101c161583610897565b905060ff8160081c1690610891565b827f1ccaadb63cb63b6bb5657ee1f006c7f7710edeebf91869610e32bc3898acf6386005840192610861565b6108fc8234146116d2565b6007830161010061ff001982541617905581600984015561082d565b34610106576000366003190112610106576040518060045480825282602080930160046000527f8a35acfbc15ff81a39ae7d344fd709f28e8600b4aa8c65c6b64bfe7fe36bd19b9260005b8582821061098e5750505061097a92500383611344565b610391604051928284938452830190611209565b8554845260019586019588955093019201610963565b34610106576000366003190112610106576020600254604051908152f35b346101065760203660031901126101065760043560005260036020526020604060002060018060a01b0381541615159081610a34575b81610a22575b81610a0f575b506040519015158152f35b60ff91506007015460101c161582610a04565b600781015460081c60ff1691506109fe565b600781015460ff1691506109f8565b346101065760e0366003190112610106576004356001600160a01b0381169003610106576024356001600160a01b0381169003610106576064356001600160401b03811161010657610a999036906004016111dc565b9060a4356001600160401b03811161010657610ab99036906004016111dc565b919060c4356001600160401b03811161010657610ada9036906004016111dc565b5060025490610aea36878661167a565b6020815191012091610afd36878661167a565b60208151910120604051937f817c1fc8ac48a12db8704c713dd56ac7346d10195d5f9657178c4a9b0bbaefa2602086015260018060a01b0360043516604086015260018060a01b03602435166060860152604435608086015260a085015260843560c085015260e084015260e08352826101008101106001600160401b0361010085011117610234576101008301604052825160208401209061190160f01b610120850152610122840152610142830152604261010083015261010082016101808301106001600160401b0361018084011117610234576101808201604052610100820151610120830120604082013560001a90601b821061114e575b83602060009460ff6080956101809586859a0152166101a084015280356101c084015201356101e08201528380520160015afa15611142576000516001600160a01b0360043581169116036110fd5760405160208101906bffffffffffffffffffffffff198060043560601b16835260243560601b166034820152604435604882015285846068830137610cb260a8828789820160843560688201528188608883013701426088820152036088810184520182611344565b51902092604051610cc28161130d565b6001600160a01b03600435811682526024351660208201526044356040820152610ced36878661167a565b60608201526084356080820152610d0536838561167a565b60a08201524260c0820152600060e0820152600061010082015260006101208201526000610140820152600061016082015284600052600360205260406000209060018060a01b038151166bffffffffffffffffffffffff60a01b9081845416178355600183019060018060a01b03602084015116908254161790556040810151600283015560608101518051906001600160401b038211610234578190610db0600386015461123d565b601f81116110aa575b50602090601f83116001146110385760009261102d575b50508160011b916000199060031b1c19161760038301555b6080810151600483015560a08101518051906001600160401b03821161023457610e15600585015461123d565b601f8111610fe6575b50602090601f8311600114610f705791806009949261016094600092610f65575b50508160011b916000199060031b1c19161760058501555b60c081015160068501556007840160e08201511515815461ff0061010085015115159160ff62ff0000610120880151151560101b1694169062ffffff1916179160081b1617179055610140810151600885015501519101556004546801000000000000000081101561023457610f1f93610eda826001610f099401600455611449565b81549060031b9088821b91600019901b191617905560405196604435885260a0602089015260a08801916116b1565b91608435604087015285830360608701526116b1565b4260808401526001600160a01b0360243581169360043590911692917f5b4d9e81317d56b613b6cc8d26d7c151d8a6110ee5e146ff25c26ef76f274f39919081900390a4005b015190508b80610e3f565b906005850160005260206000209160005b601f1985168110610fce575092600994926001926101609583601f19811610610fb5575b505050811b016005850155610e57565b015160001960f88460031b161c191690558b8080610fa5565b91926020600181928685015181550194019201610f81565b600585016000526020600020601f840160051c810160208510611026575b601f830160051c8201811061101a575050610e1e565b60008155600101611004565b5080611004565b015190508980610dd0565b9250600385016000526020600020906000935b601f198416851061108f576001945083601f19811610611076575b505050811b016003830155610de8565b015160001960f88460031b161c19169055898080611066565b8181015183556020948501946001909301929091019061104b565b909150600385016000526020600020601f840160051c8101602085106110f6575b90849392915b601f830160051c820181106110e7575050610db9565b600081558594506001016110d1565b50806110cb565b60405162461bcd60e51b815260206004820152601e60248201527f5472616465206d757374206265207369676e65642062792073656e64657200006044820152606490fd5b6040513d6000823e3d90fd5b919060ff601b82011161059f579091601b90910190610bfa565b346101065760003660031901126101065760206040517f817c1fc8ac48a12db8704c713dd56ac7346d10195d5f9657178c4a9b0bbaefa28152f35b3461010657600036600319011261010657807f56c6ba3a31145b0cc8dd9f3e6622d7f449e320c5ef9204f09eecbd68ae810bd160209252f35b9181601f84011215610106578235916001600160401b038311610106576020838186019501011161010657565b90815180825260208080930193019160005b828110611229575050505090565b83518552938101939281019260010161121b565b90600182811c9216801561126d575b602083101461125757565b634e487b7160e01b600052602260045260246000fd5b91607f169161124c565b90600092918054916112888361123d565b9182825260019384811690816000146112ea57506001146112aa575b50505050565b90919394506000526020928360002092846000945b8386106112d65750505050010190388080806112a4565b8054858701830152940193859082016112bf565b9294505050602093945060ff191683830152151560051b010190388080806112a4565b61018081019081106001600160401b0382111761023457604052565b604081019081106001600160401b0382111761023457604052565b90601f801991011681019081106001600160401b0382111761023457604052565b919082519283825260005b848110611391575050826000602080949584010152601f8019910116010190565b602081830181015184830182015201611370565b9060018060a01b038083511682526020830151166020820152604082015160408201526114006113e46060840151610180806060860152840190611365565b6080840151608084015260a084015183820360a0850152611365565b9160c081015160c083015260e0810151151560e0830152610100808201511515908301526101208082015115159083015261014080820151908301526101608091015191015290565b6004548110156114805760046000527f8a35acfbc15ff81a39ae7d344fd709f28e8600b4aa8c65c6b64bfe7fe36bd19b0190600090565b634e487b7160e01b600052603260045260246000fd5b6001600160401b0381116102345760051b60200190565b60ff81146114eb5760ff811690601f82116114d957604051916114cf83611329565b8252602082015290565b604051632cd44ac360e21b8152600490fd5b506040516000818154916114fe8361123d565b808352926001908181169081156115855750600114611528575b5061152592500382611344565b90565b600080805291507f290decd9548b62a8d60345a988386fc84ba6bc95484008f6362f93160ef3e5635b84831061156a5750611525935050810160200138611518565b81935090816020925483858901015201910190918492611551565b90506020925061152594915060ff191682840152151560051b82010138611518565b60ff81146115c95760ff811690601f82116114d957604051916114cf83611329565b506040516000816001918254926115df8461123d565b808452938181169081156115855750600114611602575061152592500382611344565b600081815291507fb10e2d527612073b26eecdfd717e6a320cf44b4afac2b0732d9fcbe2b7fa0cf65b8483106116445750611525935050810160200138611518565b8193509081602092548385890101520191019091849261162b565b6001600160401b03811161023457601f01601f191660200190565b9291926116868261165f565b916116946040519384611344565b829481845281830111610106578281602093846000960137010152565b908060209392818452848401376000828201840152601f01601f1916010190565b156116d957565b60405162461bcd60e51b815260206004820152601960248201527f496e636f72726563742045544820616d6f756e742073656e74000000000000006044820152606490fd5b3d15611749573d9061172f8261165f565b9161173d6040519384611344565b82523d6000602084013e565b606090565b600782016201000062ff000019825416179055600182019060018060a01b0380835416936008810194600080808080948a54905af161178b61171e565b501561186657828254169080808060098601948554905af16117ab61171e565b501561182157611816837f29f91d8d577399458efa70691d208d08a3a7b5d493e9c8d9c9afc343af54e5c694845416965416965491546005604051948594855260a0602086015261180260a0860160038301611277565b926040860152848303606086015201611277565b3360808301520390a4565b60405162461bcd60e51b815260206004820152601d60248201527f455448207472616e7366657220746f2073656e646572206661696c65640000006044820152606490fd5b60405162461bcd60e51b815260206004820152601f60248201527f455448207472616e7366657220746f207265636569766572206661696c6564006044820152606490fd5b604051906118b88261130d565b81610160600091828152826020820152826040820152606080820152826080820152606060a08201528260c08201528260e08201528261010082015282610120820152826101408201520152565b1561190d57565b60405162461bcd60e51b8152602060048201526014602482015273151c98591948191bd95cc81b9bdd08195e1a5cdd60621b6044820152606490fd5b80518210156114805760209160051b010190565b6007015460ff8160101c166000146119755750600390565b60ff81169081806119b2575b1561198d575050600290565b81156119a4575b501561199f57600190565b600090565b60ff915060081c1638611994565b5060ff8160081c1661198156fea2646970667358221220ae4df01f9b2bd5dab6fc44f9d2174c2401047559dbf28f665403f114708050d664736f6c634300081400338b73c3c69bb8fe3d512ecc4cf759cc79239f7b179b0ffacaa9a75d522b39400f","opcodes":"PUSH2 0x160 PUSH1 0x40 DUP2 DUP2 MSTORE CALLVALUE PUSH3 0x1AF JUMPI PUSH3 0x18 DUP3 PUSH3 0x1B4 JUMP JUMPDEST PUSH1 0x4 DUP3 MSTORE PUSH1 0x20 SWAP2 DUP3 DUP2 ADD SWAP2 PUSH4 0xA0D28CB PUSH1 0xE3 SHL DUP1 DUP5 MSTORE DUP2 MLOAD SWAP5 PUSH3 0x3C DUP7 PUSH3 0x1B4 JUMP JUMPDEST PUSH1 0x1 DUP7 MSTORE PUSH3 0x170 PUSH3 0xDD PUSH1 0x1 PUSH1 0x4 DUP5 DUP11 ADD SWAP6 PUSH1 0x31 PUSH1 0xF8 SHL SWAP7 DUP8 DUP2 MSTORE PUSH3 0x64 DUP11 PUSH3 0x20A JUMP JUMPDEST SWAP11 PUSH2 0x120 SWAP12 DUP13 MSTORE PUSH3 0x76 DUP14 PUSH3 0x3DD JUMP JUMPDEST SWAP11 PUSH2 0x140 SWAP12 DUP13 MSTORE MLOAD SWAP1 KECCAK256 SWAP12 DUP13 PUSH1 0xE0 MSTORE MLOAD SWAP1 KECCAK256 SWAP11 PUSH2 0x100 SWAP12 DUP1 DUP14 MSTORE CHAINID PUSH1 0xA0 MSTORE DUP10 MLOAD SWAP6 DUP7 SWAP2 DUP10 DUP4 ADD SWAP4 ADDRESS SWAP2 CHAINID SWAP2 DUP7 SWAP3 PUSH1 0x80 SWAP3 SWAP6 SWAP5 SWAP2 SWAP6 PUSH1 0xA0 DUP6 ADD SWAP7 PUSH1 0x0 DUP1 MLOAD PUSH1 0x20 PUSH3 0x1F80 DUP4 CODECOPY DUP2 MLOAD SWAP2 MSTORE DUP7 MSTORE PUSH1 0x20 DUP7 ADD MSTORE PUSH1 0x40 DUP6 ADD MSTORE PUSH1 0x60 DUP5 ADD MSTORE PUSH1 0x1 DUP1 PUSH1 0xA0 SHL SUB AND SWAP2 ADD MSTORE JUMP JUMPDEST SUB SWAP5 PUSH3 0xF3 PUSH1 0x1F NOT SWAP7 DUP8 DUP2 ADD DUP4 MSTORE DUP3 PUSH3 0x1E6 JUMP JUMPDEST MLOAD SWAP1 KECCAK256 PUSH1 0x80 MSTORE ADDRESS PUSH1 0xC0 MSTORE DUP6 DUP9 MLOAD PUSH3 0x10B DUP2 PUSH3 0x1B4 JUMP JUMPDEST DUP4 DUP2 MSTORE ADD SWAP1 DUP2 MSTORE KECCAK256 SWAP5 DUP5 DUP8 MLOAD PUSH3 0x122 DUP2 PUSH3 0x1B4 JUMP JUMPDEST DUP4 DUP2 MSTORE ADD SWAP1 DUP2 MSTORE KECCAK256 DUP6 MLOAD PUSH1 0x0 DUP1 MLOAD PUSH1 0x20 PUSH3 0x1F80 DUP4 CODECOPY DUP2 MLOAD SWAP2 MSTORE SWAP5 DUP2 ADD SWAP5 DUP6 MSTORE PUSH1 0x20 DUP6 ADD SWAP6 SWAP1 SWAP6 MSTORE PUSH1 0x40 DUP5 ADD MSTORE CHAINID PUSH1 0x60 DUP5 ADD MSTORE ADDRESS PUSH1 0x80 DUP5 ADD MSTORE SWAP2 SWAP3 SWAP2 DUP3 PUSH1 0xA0 DUP6 ADD SUB SWAP1 DUP2 ADD DUP4 MSTORE DUP3 PUSH3 0x1E6 JUMP JUMPDEST MLOAD SWAP1 KECCAK256 PUSH1 0x2 SSTORE MLOAD SWAP2 PUSH2 0x19F5 SWAP4 DUP5 PUSH3 0x58B DUP6 CODECOPY PUSH1 0x80 MLOAD DUP5 POP POP PUSH1 0xA0 MLOAD DUP5 POP POP PUSH1 0xC0 MLOAD DUP5 POP POP PUSH1 0xE0 MLOAD DUP5 POP POP MLOAD DUP4 POP POP MLOAD DUP3 PUSH2 0x13F ADD MSTORE MLOAD DUP2 PUSH2 0x168 ADD MSTORE RETURN JUMPDEST PUSH1 0x0 DUP1 REVERT JUMPDEST PUSH1 0x40 DUP2 ADD SWAP1 DUP2 LT PUSH1 0x1 PUSH1 0x1 PUSH1 0x40 SHL SUB DUP3 GT OR PUSH3 0x1D0 JUMPI PUSH1 0x40 MSTORE JUMP JUMPDEST PUSH4 0x4E487B71 PUSH1 0xE0 SHL PUSH1 0x0 MSTORE PUSH1 0x41 PUSH1 0x4 MSTORE PUSH1 0x24 PUSH1 0x0 REVERT JUMPDEST PUSH1 0x1F SWAP1 SWAP2 ADD PUSH1 0x1F NOT AND DUP2 ADD SWAP1 PUSH1 0x1 PUSH1 0x1 PUSH1 0x40 SHL SUB DUP3 GT SWAP1 DUP3 LT OR PUSH3 0x1D0 JUMPI PUSH1 0x40 MSTORE JUMP JUMPDEST DUP1 MLOAD PUSH1 0x20 SWAP2 SWAP1 DUP3 DUP2 LT ISZERO PUSH3 0x2A9 JUMPI POP SWAP1 PUSH1 0x1F DUP3 MLOAD GT PUSH3 0x248 JUMPI DUP1 DUP3 MLOAD SWAP3 ADD MLOAD SWAP1 DUP1 DUP4 LT PUSH3 0x239 JUMPI POP OR SWAP1 JUMP JUMPDEST DUP3 PUSH1 0x0 NOT SWAP2 SUB PUSH1 0x3 SHL SHL AND OR SWAP1 JUMP JUMPDEST SWAP1 PUSH1 0x40 MLOAD DUP1 SWAP3 PUSH4 0x305A27A9 PUSH1 0xE0 SHL DUP3 MSTORE DUP1 PUSH1 0x4 DUP4 ADD MSTORE DUP3 MLOAD SWAP1 DUP2 PUSH1 0x24 DUP5 ADD MSTORE PUSH1 0x0 SWAP4 JUMPDEST DUP3 DUP6 LT PUSH3 0x28F JUMPI POP POP PUSH1 0x44 SWAP3 POP PUSH1 0x0 DUP4 DUP3 DUP5 ADD ADD MSTORE PUSH1 0x1F DUP1 NOT SWAP2 ADD AND DUP2 ADD SUB ADD SWAP1 REVERT JUMPDEST DUP5 DUP2 ADD DUP3 ADD MLOAD DUP7 DUP7 ADD PUSH1 0x44 ADD MSTORE SWAP4 DUP2 ADD SWAP4 DUP6 SWAP4 POP PUSH3 0x26B JUMP JUMPDEST PUSH1 0x1 PUSH1 0x1 PUSH1 0x40 SHL SUB DUP2 GT PUSH3 0x1D0 JUMPI PUSH1 0x0 SWAP3 DUP4 SLOAD SWAP3 PUSH1 0x1 SWAP4 DUP5 DUP2 DUP2 SHR SWAP2 AND DUP1 ISZERO PUSH3 0x3D2 JUMPI JUMPDEST DUP4 DUP3 LT EQ PUSH3 0x3BE JUMPI PUSH1 0x1F DUP2 GT PUSH3 0x388 JUMPI JUMPDEST POP DUP2 PUSH1 0x1F DUP5 GT PUSH1 0x1 EQ PUSH3 0x321 JUMPI POP SWAP3 DUP3 SWAP4 SWAP2 DUP4 SWAP3 DUP7 SWAP5 PUSH3 0x315 JUMPI JUMPDEST POP POP SHL SWAP2 PUSH1 0x0 NOT SWAP1 PUSH1 0x3 SHL SHR NOT AND OR SWAP1 SSTORE PUSH1 0xFF SWAP1 JUMP JUMPDEST ADD MLOAD SWAP3 POP CODESIZE DUP1 PUSH3 0x2FF JUMP JUMPDEST SWAP2 SWAP1 DUP4 PUSH1 0x1F NOT DUP2 AND DUP8 DUP1 MSTORE DUP5 DUP9 KECCAK256 SWAP5 DUP9 SWAP1 JUMPDEST DUP9 DUP4 DUP4 LT PUSH3 0x36D JUMPI POP POP POP LT PUSH3 0x353 JUMPI JUMPDEST POP POP POP DUP2 SHL ADD SWAP1 SSTORE PUSH1 0xFF SWAP1 JUMP JUMPDEST ADD MLOAD PUSH1 0x0 NOT PUSH1 0xF8 DUP5 PUSH1 0x3 SHL AND SHR NOT AND SWAP1 SSTORE CODESIZE DUP1 DUP1 PUSH3 0x346 JUMP JUMPDEST DUP6 DUP8 ADD MLOAD DUP9 SSTORE SWAP1 SWAP7 ADD SWAP6 SWAP5 DUP6 ADD SWAP5 DUP8 SWAP4 POP SWAP1 DUP2 ADD SWAP1 PUSH3 0x333 JUMP JUMPDEST DUP6 DUP1 MSTORE DUP5 PUSH1 0x1F DUP5 DUP9 KECCAK256 SWAP3 ADD PUSH1 0x5 SHR DUP3 ADD SWAP2 PUSH1 0x1F DUP7 ADD PUSH1 0x5 SHR ADD JUMPDEST DUP3 DUP2 LT PUSH3 0x3B2 JUMPI POP POP PUSH3 0x2E2 JUMP JUMPDEST DUP8 DUP2 SSTORE ADD DUP6 SWAP1 PUSH3 0x3A2 JUMP JUMPDEST PUSH4 0x4E487B71 PUSH1 0xE0 SHL DUP7 MSTORE PUSH1 0x22 PUSH1 0x4 MSTORE PUSH1 0x24 DUP7 REVERT JUMPDEST SWAP1 PUSH1 0x7F AND SWAP1 PUSH3 0x2CF JUMP JUMPDEST DUP1 MLOAD PUSH1 0x20 SWAP1 DUP2 DUP2 LT ISZERO PUSH3 0x46B JUMPI POP PUSH1 0x1F DUP3 MLOAD GT PUSH3 0x40A JUMPI DUP1 DUP3 MLOAD SWAP3 ADD MLOAD SWAP1 DUP1 DUP4 LT PUSH3 0x239 JUMPI POP OR SWAP1 JUMP JUMPDEST SWAP1 PUSH1 0x40 MLOAD DUP1 SWAP3 PUSH4 0x305A27A9 PUSH1 0xE0 SHL DUP3 MSTORE DUP1 PUSH1 0x4 DUP4 ADD MSTORE DUP3 MLOAD SWAP1 DUP2 PUSH1 0x24 DUP5 ADD MSTORE PUSH1 0x0 SWAP4 JUMPDEST DUP3 DUP6 LT PUSH3 0x451 JUMPI POP POP PUSH1 0x44 SWAP3 POP PUSH1 0x0 DUP4 DUP3 DUP5 ADD ADD MSTORE PUSH1 0x1F DUP1 NOT SWAP2 ADD AND DUP2 ADD SUB ADD SWAP1 REVERT JUMPDEST DUP5 DUP2 ADD DUP3 ADD MLOAD DUP7 DUP7 ADD PUSH1 0x44 ADD MSTORE SWAP4 DUP2 ADD SWAP4 DUP6 SWAP4 POP PUSH3 0x42D JUMP JUMPDEST SWAP2 SWAP3 SWAP2 PUSH1 0x1 PUSH1 0x1 PUSH1 0x40 SHL SUB DUP2 GT PUSH3 0x1D0 JUMPI PUSH1 0x1 SWAP2 DUP3 SLOAD DUP4 DUP2 DUP2 SHR SWAP2 AND DUP1 ISZERO PUSH3 0x57F JUMPI JUMPDEST DUP3 DUP3 LT EQ PUSH3 0x569 JUMPI PUSH1 0x1F DUP2 GT PUSH3 0x530 JUMPI JUMPDEST POP DUP1 PUSH1 0x1F DUP4 GT PUSH1 0x1 EQ PUSH3 0x4E3 JUMPI POP DUP2 SWAP3 SWAP4 SWAP5 PUSH1 0x0 SWAP3 PUSH3 0x4D7 JUMPI JUMPDEST POP POP PUSH1 0x0 NOT PUSH1 0x3 DUP4 SWAP1 SHL SHR NOT AND SWAP1 DUP3 SHL OR SWAP1 SSTORE PUSH1 0xFF SWAP1 JUMP JUMPDEST ADD MLOAD SWAP1 POP CODESIZE DUP1 PUSH3 0x4BF JUMP JUMPDEST SWAP1 PUSH1 0x1F NOT DUP4 AND SWAP6 DUP5 PUSH1 0x0 MSTORE DUP3 PUSH1 0x0 KECCAK256 SWAP3 PUSH1 0x0 SWAP1 JUMPDEST DUP9 DUP3 LT PUSH3 0x518 JUMPI POP POP DUP4 DUP6 SWAP7 SWAP8 LT PUSH3 0x353 JUMPI POP POP POP DUP2 SHL ADD SWAP1 SSTORE PUSH1 0xFF SWAP1 JUMP JUMPDEST DUP1 DUP8 DUP6 SWAP7 DUP3 SWAP5 SWAP7 DUP7 ADD MLOAD DUP2 SSTORE ADD SWAP6 ADD SWAP4 ADD SWAP1 PUSH3 0x4F7 JUMP JUMPDEST DUP4 PUSH1 0x0 MSTORE DUP4 PUSH1 0x1F DUP4 PUSH1 0x0 KECCAK256 SWAP3 ADD PUSH1 0x5 SHR DUP3 ADD SWAP2 PUSH1 0x1F DUP6 ADD PUSH1 0x5 SHR ADD JUMPDEST DUP3 DUP2 LT PUSH3 0x55C JUMPI POP POP PUSH3 0x4A3 JUMP JUMPDEST PUSH1 0x0 DUP2 SSTORE ADD DUP5 SWAP1 PUSH3 0x54C JUMP JUMPDEST PUSH4 0x4E487B71 PUSH1 0xE0 SHL PUSH1 0x0 MSTORE PUSH1 0x22 PUSH1 0x4 MSTORE PUSH1 0x24 PUSH1 0x0 REVERT JUMPDEST SWAP1 PUSH1 0x7F AND SWAP1 PUSH3 0x490 JUMP INVALID PUSH1 0x80 DUP1 PUSH1 0x40 MSTORE PUSH1 0x4 CALLDATASIZE LT ISZERO PUSH2 0x1D JUMPI JUMPDEST POP CALLDATASIZE ISZERO PUSH2 0x1B JUMPI PUSH1 0x0 DUP1 REVERT JUMPDEST STOP JUMPDEST PUSH1 0x0 CALLDATALOAD PUSH1 0xE0 SHR SWAP1 DUP2 PUSH4 0x1517CFB0 EQ PUSH2 0x11A3 JUMPI POP DUP1 PUSH4 0x2BBA58AC EQ PUSH2 0x1168 JUMPI DUP1 PUSH4 0x3178AD9C EQ PUSH2 0xA43 JUMPI DUP1 PUSH4 0x3184FF8B EQ PUSH2 0x9C2 JUMPI DUP1 PUSH4 0x3644E515 EQ PUSH2 0x9A4 JUMPI DUP1 PUSH4 0x382D08FE EQ PUSH2 0x918 JUMPI DUP1 PUSH4 0x3E0DF32A EQ PUSH2 0x7D7 JUMPI DUP1 PUSH4 0x46BBC6F4 EQ PUSH2 0x6D6 JUMPI DUP1 PUSH4 0x5CA85E9B EQ PUSH2 0x5D0 JUMPI DUP1 PUSH4 0x6850BC60 EQ PUSH2 0x395 JUMPI DUP1 PUSH4 0x6C420439 EQ PUSH2 0x294 JUMPI DUP1 PUSH4 0x77407399 EQ PUSH2 0x24A JUMPI DUP1 PUSH4 0x84B0196E EQ PUSH2 0x129 JUMPI DUP1 PUSH4 0xA3031B77 EQ PUSH2 0x10B JUMPI PUSH4 0xDF5F0C75 EQ PUSH2 0xCF JUMPI CODESIZE PUSH2 0xF JUMP JUMPDEST CALLVALUE PUSH2 0x106 JUMPI PUSH1 0x20 CALLDATASIZE PUSH1 0x3 NOT ADD SLT PUSH2 0x106 JUMPI PUSH1 0x4 CALLDATALOAD PUSH1 0x4 SLOAD DUP2 LT ISZERO PUSH2 0x106 JUMPI PUSH2 0xF8 PUSH1 0x20 SWAP2 PUSH2 0x1449 JUMP JUMPDEST SWAP1 SLOAD PUSH1 0x40 MLOAD SWAP2 PUSH1 0x3 SHL SHR DUP2 MSTORE RETURN JUMPDEST PUSH1 0x0 DUP1 REVERT JUMPDEST CALLVALUE PUSH2 0x106 JUMPI PUSH1 0x0 CALLDATASIZE PUSH1 0x3 NOT ADD SLT PUSH2 0x106 JUMPI PUSH1 0x20 PUSH1 0x4 SLOAD PUSH1 0x40 MLOAD SWAP1 DUP2 MSTORE RETURN JUMPDEST CALLVALUE PUSH2 0x106 JUMPI PUSH1 0x0 CALLDATASIZE PUSH1 0x3 NOT ADD SLT PUSH2 0x106 JUMPI PUSH2 0x163 PUSH32 0x0 PUSH2 0x14AD JUMP JUMPDEST PUSH2 0x18C PUSH32 0x0 PUSH2 0x15A7 JUMP JUMPDEST PUSH1 0x40 MLOAD PUSH1 0x20 DUP1 DUP3 ADD SWAP3 DUP3 DUP5 LT PUSH1 0x1 PUSH1 0x1 PUSH1 0x40 SHL SUB DUP6 GT OR PUSH2 0x234 JUMPI SWAP2 DUP2 PUSH2 0x1E5 DUP6 SWAP5 PUSH2 0x1D7 SWAP8 SWAP7 PUSH1 0x40 MSTORE PUSH1 0x0 DUP5 MSTORE PUSH1 0x40 MLOAD SWAP8 DUP9 SWAP8 PUSH1 0xF PUSH1 0xF8 SHL DUP10 MSTORE PUSH1 0xE0 DUP6 DUP11 ADD MSTORE PUSH1 0xE0 DUP10 ADD SWAP1 PUSH2 0x1365 JUMP JUMPDEST SWAP1 DUP8 DUP3 SUB PUSH1 0x40 DUP10 ADD MSTORE PUSH2 0x1365 JUMP JUMPDEST SWAP2 PUSH2 0x7A69 PUSH1 0x60 DUP8 ADD MSTORE ADDRESS PUSH1 0x80 DUP8 ADD MSTORE PUSH1 0x0 PUSH1 0xA0 DUP8 ADD MSTORE DUP6 DUP4 SUB PUSH1 0xC0 DUP8 ADD MSTORE MLOAD SWAP2 DUP3 DUP2 MSTORE ADD SWAP3 SWAP2 PUSH1 0x0 JUMPDEST DUP3 DUP2 LT PUSH2 0x21D JUMPI POP POP POP POP SUB SWAP1 RETURN JUMPDEST DUP4 MLOAD DUP6 MSTORE DUP7 SWAP6 POP SWAP4 DUP2 ADD SWAP4 SWAP3 DUP2 ADD SWAP3 PUSH1 0x1 ADD PUSH2 0x20E JUMP JUMPDEST PUSH4 0x4E487B71 PUSH1 0xE0 SHL PUSH1 0x0 MSTORE PUSH1 0x41 PUSH1 0x4 MSTORE PUSH1 0x24 PUSH1 0x0 REVERT JUMPDEST CALLVALUE PUSH2 0x106 JUMPI PUSH1 0x20 CALLDATASIZE PUSH1 0x3 NOT ADD SLT PUSH2 0x106 JUMPI PUSH1 0x4 CALLDATALOAD PUSH1 0x0 MSTORE PUSH1 0x3 PUSH1 0x20 MSTORE PUSH1 0x20 PUSH2 0x289 PUSH1 0x40 PUSH1 0x0 KECCAK256 PUSH2 0x284 PUSH1 0x1 DUP1 PUSH1 0xA0 SHL SUB DUP3 SLOAD AND ISZERO ISZERO PUSH2 0x1906 JUMP JUMPDEST PUSH2 0x195D JUMP JUMPDEST PUSH1 0xFF PUSH1 0x40 MLOAD SWAP2 AND DUP2 MSTORE RETURN JUMPDEST CALLVALUE PUSH2 0x106 JUMPI PUSH1 0x20 CALLDATASIZE PUSH1 0x3 NOT ADD SLT PUSH2 0x106 JUMPI PUSH2 0x2AD PUSH2 0x18AB JUMP JUMPDEST POP PUSH1 0x4 CALLDATALOAD PUSH1 0x0 MSTORE PUSH1 0x3 PUSH1 0x20 MSTORE PUSH2 0x391 PUSH1 0x40 PUSH1 0x0 KECCAK256 PUSH1 0x9 PUSH1 0x40 MLOAD SWAP2 PUSH2 0x2D0 DUP4 PUSH2 0x130D JUMP JUMPDEST PUSH1 0x1 DUP1 PUSH1 0xA0 SHL SUB DUP1 DUP3 SLOAD AND DUP5 MSTORE PUSH1 0x1 DUP3 ADD SLOAD AND PUSH1 0x20 DUP5 ADD MSTORE PUSH1 0x2 DUP2 ADD SLOAD PUSH1 0x40 DUP5 ADD MSTORE PUSH1 0x40 MLOAD PUSH2 0x30D DUP2 PUSH2 0x306 DUP2 PUSH1 0x3 DUP7 ADD PUSH2 0x1277 JUMP JUMPDEST SUB DUP3 PUSH2 0x1344 JUMP JUMPDEST PUSH1 0x60 DUP5 ADD MSTORE PUSH1 0x4 DUP2 ADD SLOAD PUSH1 0x80 DUP5 ADD MSTORE PUSH1 0x40 MLOAD PUSH2 0x330 DUP2 PUSH2 0x306 DUP2 PUSH1 0x5 DUP7 ADD PUSH2 0x1277 JUMP JUMPDEST PUSH1 0xA0 DUP5 ADD MSTORE PUSH1 0x6 DUP2 ADD SLOAD PUSH1 0xC0 DUP5 ADD MSTORE PUSH1 0xFF PUSH1 0x7 DUP3 ADD SLOAD DUP2 DUP2 AND ISZERO ISZERO PUSH1 0xE0 DUP7 ADD MSTORE DUP2 DUP2 PUSH1 0x8 SHR AND ISZERO ISZERO PUSH2 0x100 DUP7 ADD MSTORE PUSH1 0x10 SHR AND ISZERO ISZERO PUSH2 0x120 DUP5 ADD MSTORE PUSH1 0x8 DUP2 ADD SLOAD PUSH2 0x140 DUP5 ADD MSTORE ADD SLOAD PUSH2 0x160 DUP3 ADD MSTORE PUSH1 0x40 MLOAD SWAP2 DUP3 SWAP2 PUSH1 0x20 DUP4 MSTORE PUSH1 0x20 DUP4 ADD SWAP1 PUSH2 0x13A5 JUMP JUMPDEST SUB SWAP1 RETURN JUMPDEST CALLVALUE PUSH2 0x106 JUMPI PUSH1 0x0 CALLDATASIZE PUSH1 0x3 NOT ADD SLT PUSH2 0x106 JUMPI PUSH1 0x4 SLOAD PUSH2 0x3B2 DUP2 PUSH2 0x1496 JUMP JUMPDEST PUSH2 0x3BF PUSH1 0x40 MLOAD SWAP2 DUP3 PUSH2 0x1344 JUMP JUMPDEST DUP2 DUP2 MSTORE PUSH1 0x1F NOT SWAP2 DUP3 PUSH2 0x3D0 DUP3 PUSH2 0x1496 JUMP JUMPDEST ADD SWAP3 PUSH1 0x20 SWAP4 CALLDATASIZE DUP6 DUP6 ADD CALLDATACOPY PUSH2 0x3E3 DUP3 PUSH2 0x1496 JUMP JUMPDEST SWAP2 PUSH2 0x3F1 PUSH1 0x40 MLOAD SWAP4 DUP5 PUSH2 0x1344 JUMP JUMPDEST DUP1 DUP4 MSTORE DUP2 PUSH2 0x3FE DUP3 PUSH2 0x1496 JUMP JUMPDEST ADD PUSH1 0x0 JUMPDEST DUP2 DUP2 LT PUSH2 0x5B5 JUMPI POP POP PUSH1 0x0 JUMPDEST DUP2 DUP2 LT PUSH2 0x488 JUMPI POP POP PUSH2 0x42C PUSH1 0x40 MLOAD SWAP4 PUSH1 0x40 DUP6 MSTORE PUSH1 0x40 DUP6 ADD SWAP1 PUSH2 0x1209 JUMP JUMPDEST SWAP4 DUP4 DUP6 SUB DUP2 DUP6 ADD MSTORE DUP3 MLOAD SWAP1 DUP2 DUP7 MSTORE DUP1 DUP7 ADD DUP2 DUP1 DUP5 PUSH1 0x5 SHL DUP10 ADD ADD SWAP6 ADD SWAP4 PUSH1 0x0 SWAP8 JUMPDEST DUP5 DUP10 LT PUSH2 0x45A JUMPI DUP8 DUP8 SUB DUP9 RETURN JUMPDEST SWAP1 SWAP2 SWAP3 SWAP4 SWAP5 SWAP6 DUP5 DUP1 PUSH2 0x476 DUP4 DUP7 DUP7 PUSH1 0x1 SWAP7 SUB ADD DUP9 MSTORE DUP11 MLOAD PUSH2 0x13A5 JUMP JUMPDEST SWAP9 ADD SWAP5 ADD SWAP9 ADD SWAP8 SWAP2 SWAP1 SWAP5 SWAP4 SWAP3 SWAP5 PUSH2 0x44D JUMP JUMPDEST PUSH2 0x494 DUP2 SWAP7 SWAP4 SWAP7 PUSH2 0x1449 JUMP JUMPDEST SWAP1 SLOAD PUSH1 0x3 SWAP2 DUP3 SHL SHR PUSH2 0x4A6 DUP4 DUP9 PUSH2 0x1949 JUMP JUMPDEST MSTORE PUSH2 0x4B0 DUP3 PUSH2 0x1449 JUMP JUMPDEST SWAP1 SLOAD SWAP1 DUP3 SHL SHR PUSH1 0x0 MSTORE DUP1 DUP5 MSTORE PUSH1 0x9 PUSH1 0x40 PUSH1 0x0 KECCAK256 PUSH2 0x306 PUSH2 0x505 PUSH1 0x40 MLOAD SWAP5 PUSH2 0x4D6 DUP7 PUSH2 0x130D JUMP JUMPDEST PUSH1 0x1 DUP1 PUSH1 0xA0 SHL SUB DUP1 DUP6 SLOAD AND DUP8 MSTORE PUSH1 0x1 DUP6 ADD SLOAD AND DUP10 DUP8 ADD MSTORE PUSH1 0x2 DUP5 ADD SLOAD PUSH1 0x40 DUP8 ADD MSTORE PUSH1 0x40 MLOAD SWAP3 DUP4 DUP1 SWAP3 DUP7 ADD PUSH2 0x1277 JUMP JUMPDEST PUSH1 0x60 DUP5 ADD MSTORE PUSH1 0x4 DUP2 ADD SLOAD PUSH1 0x80 DUP5 ADD MSTORE PUSH1 0x40 MLOAD PUSH2 0x528 DUP2 PUSH2 0x306 DUP2 PUSH1 0x5 DUP7 ADD PUSH2 0x1277 JUMP JUMPDEST PUSH1 0xA0 DUP5 ADD MSTORE PUSH1 0x6 DUP2 ADD SLOAD PUSH1 0xC0 DUP5 ADD MSTORE PUSH1 0x7 DUP2 ADD SLOAD PUSH1 0xFF DUP1 DUP3 AND ISZERO ISZERO PUSH1 0xE0 DUP7 ADD MSTORE PUSH1 0x8 SWAP2 DUP2 DUP2 DUP5 SHR AND ISZERO ISZERO PUSH2 0x100 DUP8 ADD MSTORE PUSH1 0x10 SHR AND ISZERO ISZERO PUSH2 0x120 DUP6 ADD MSTORE DUP2 ADD SLOAD PUSH2 0x140 DUP5 ADD MSTORE ADD SLOAD PUSH2 0x160 DUP3 ADD MSTORE PUSH2 0x57F DUP3 DUP7 PUSH2 0x1949 JUMP JUMPDEST MSTORE PUSH2 0x58A DUP2 DUP6 PUSH2 0x1949 JUMP JUMPDEST POP PUSH1 0x0 NOT DUP2 EQ PUSH2 0x59F JUMPI PUSH1 0x1 ADD SWAP5 SWAP2 SWAP5 PUSH2 0x40E JUMP JUMPDEST PUSH4 0x4E487B71 PUSH1 0xE0 SHL PUSH1 0x0 MSTORE PUSH1 0x11 PUSH1 0x4 MSTORE PUSH1 0x24 PUSH1 0x0 REVERT JUMPDEST SWAP6 DUP1 SWAP4 SWAP7 PUSH2 0x5C1 PUSH2 0x18AB JUMP JUMPDEST DUP3 DUP3 DUP9 ADD ADD MSTORE ADD SWAP6 SWAP3 SWAP6 PUSH2 0x402 JUMP JUMPDEST CALLVALUE PUSH2 0x106 JUMPI PUSH1 0x20 CALLDATASIZE PUSH1 0x3 NOT ADD SLT PUSH2 0x106 JUMPI PUSH1 0x4 CALLDATALOAD PUSH1 0x0 MSTORE PUSH1 0x3 PUSH1 0x20 MSTORE PUSH1 0x40 PUSH1 0x0 KECCAK256 PUSH1 0x1 DUP1 PUSH1 0xA0 SHL SUB DUP1 DUP3 SLOAD AND SWAP1 PUSH1 0x1 DUP4 ADD SLOAD AND SWAP2 PUSH1 0x2 DUP2 ADD SLOAD PUSH1 0x40 MLOAD SWAP2 PUSH2 0x625 DUP4 PUSH2 0x61E DUP2 PUSH1 0x3 DUP6 ADD PUSH2 0x1277 JUMP JUMPDEST SUB DUP5 PUSH2 0x1344 JUMP JUMPDEST PUSH1 0xFF PUSH1 0x4 DUP3 ADD SLOAD SWAP4 PUSH2 0x69C PUSH1 0x40 MLOAD SWAP6 PUSH2 0x64C DUP8 PUSH2 0x645 DUP2 PUSH1 0x5 DUP10 ADD PUSH2 0x1277 JUMP JUMPDEST SUB DUP9 PUSH2 0x1344 JUMP JUMPDEST PUSH1 0x6 DUP6 ADD SLOAD SWAP7 PUSH2 0x689 PUSH1 0x7 DUP8 ADD SLOAD SWAP5 PUSH1 0x9 PUSH1 0x8 DUP10 ADD SLOAD SWAP9 ADD SLOAD SWAP9 PUSH1 0x40 MLOAD SWAP13 DUP14 SWAP13 DUP14 MSTORE PUSH1 0x20 DUP14 ADD MSTORE PUSH1 0x40 DUP13 ADD MSTORE PUSH2 0x180 DUP1 PUSH1 0x60 DUP14 ADD MSTORE DUP12 ADD SWAP1 PUSH2 0x1365 JUMP JUMPDEST SWAP2 PUSH1 0x80 DUP11 ADD MSTORE DUP9 DUP3 SUB PUSH1 0xA0 DUP11 ADD MSTORE PUSH2 0x1365 JUMP JUMPDEST SWAP5 PUSH1 0xC0 DUP8 ADD MSTORE DUP2 DUP2 AND ISZERO ISZERO PUSH1 0xE0 DUP8 ADD MSTORE DUP2 DUP2 PUSH1 0x8 SHR AND ISZERO ISZERO PUSH2 0x100 DUP8 ADD MSTORE PUSH1 0x10 SHR AND ISZERO ISZERO PUSH2 0x120 DUP6 ADD MSTORE PUSH2 0x140 DUP5 ADD MSTORE PUSH2 0x160 DUP4 ADD MSTORE SUB SWAP1 RETURN JUMPDEST CALLVALUE PUSH2 0x106 JUMPI PUSH1 0x20 CALLDATASIZE PUSH1 0x3 NOT ADD SLT PUSH2 0x106 JUMPI PUSH1 0x4 CALLDATALOAD PUSH1 0x0 DUP2 DUP2 MSTORE PUSH1 0x3 PUSH1 0x20 MSTORE PUSH1 0x40 SWAP1 KECCAK256 DUP1 SLOAD PUSH2 0x70E SWAP1 PUSH1 0x1 PUSH1 0x1 PUSH1 0xA0 SHL SUB AND ISZERO ISZERO PUSH2 0x1906 JUMP JUMPDEST PUSH1 0x7 DUP2 ADD SLOAD PUSH1 0xFF DUP2 PUSH1 0x10 SHR AND PUSH2 0x799 JUMPI PUSH1 0xFF DUP2 AND SWAP1 DUP2 PUSH2 0x78B JUMPI JUMPDEST POP ISZERO PUSH2 0x738 JUMPI PUSH2 0x1B SWAP2 PUSH2 0x174E JUMP JUMPDEST PUSH1 0x40 MLOAD PUSH3 0x461BCD PUSH1 0xE5 SHL DUP2 MSTORE PUSH1 0x20 PUSH1 0x4 DUP3 ADD MSTORE PUSH1 0x25 PUSH1 0x24 DUP3 ADD MSTORE PUSH32 0x426F74682070617274696573206D7573742070726F766964652066756E647320 PUSH1 0x44 DUP3 ADD MSTORE PUSH5 0x199A5C9CDD PUSH1 0xDA SHL PUSH1 0x64 DUP3 ADD MSTORE PUSH1 0x84 SWAP1 REVERT JUMPDEST PUSH1 0xFF SWAP2 POP PUSH1 0x8 SHR AND DUP4 PUSH2 0x729 JUMP JUMPDEST PUSH1 0x40 MLOAD PUSH3 0x461BCD PUSH1 0xE5 SHL DUP2 MSTORE PUSH1 0x20 PUSH1 0x4 DUP3 ADD MSTORE PUSH1 0x16 PUSH1 0x24 DUP3 ADD MSTORE PUSH22 0x151C98591948185B1C9958591E48195E1958DD5D1959 PUSH1 0x52 SHL PUSH1 0x44 DUP3 ADD MSTORE PUSH1 0x64 SWAP1 REVERT JUMPDEST PUSH1 0x40 CALLDATASIZE PUSH1 0x3 NOT ADD SLT PUSH2 0x106 JUMPI PUSH1 0x4 CALLDATALOAD PUSH1 0x0 DUP2 DUP2 MSTORE PUSH1 0x3 PUSH1 0x20 MSTORE PUSH1 0x40 SWAP1 KECCAK256 DUP1 SLOAD PUSH1 0x24 CALLDATALOAD SWAP1 PUSH1 0x1 PUSH1 0x1 PUSH1 0xA0 SHL SUB SWAP1 CALLER SWAP1 DUP3 AND SUB PUSH2 0x8F1 JUMPI PUSH2 0x817 DUP3 CALLVALUE EQ PUSH2 0x16D2 JUMP JUMPDEST PUSH1 0x7 DUP4 ADD PUSH1 0x1 PUSH1 0xFF NOT DUP3 SLOAD AND OR SWAP1 SSTORE DUP2 PUSH1 0x8 DUP5 ADD SSTORE JUMPDEST DUP3 SLOAD AND CALLER EQ PUSH1 0x0 EQ PUSH2 0x8C5 JUMPI DUP3 PUSH32 0x1CCAADB63CB63B6BB5657EE1F006C7F7710EDEEBF91869610E32BC3898ACF638 PUSH1 0x3 DUP5 ADD SWAP3 JUMPDEST PUSH1 0x40 MLOAD SWAP1 DUP2 MSTORE PUSH1 0x40 PUSH1 0x20 DUP3 ADD MSTORE DUP1 PUSH2 0x87E CALLER SWAP6 PUSH1 0x40 DUP4 ADD SWAP1 PUSH2 0x1277 JUMP JUMPDEST SUB SWAP1 LOG3 PUSH1 0x7 DUP2 ADD SLOAD PUSH1 0xFF DUP2 AND SWAP1 DUP2 PUSH2 0x8B6 JUMPI JUMPDEST DUP2 PUSH2 0x8A7 JUMPI JUMPDEST POP PUSH2 0x89E JUMPI STOP JUMPDEST PUSH2 0x1B SWAP2 PUSH2 0x174E JUMP JUMPDEST PUSH1 0xFF SWAP2 POP PUSH1 0x10 SHR AND ISZERO DUP4 PUSH2 0x897 JUMP JUMPDEST SWAP1 POP PUSH1 0xFF DUP2 PUSH1 0x8 SHR AND SWAP1 PUSH2 0x891 JUMP JUMPDEST DUP3 PUSH32 0x1CCAADB63CB63B6BB5657EE1F006C7F7710EDEEBF91869610E32BC3898ACF638 PUSH1 0x5 DUP5 ADD SWAP3 PUSH2 0x861 JUMP JUMPDEST PUSH2 0x8FC DUP3 CALLVALUE EQ PUSH2 0x16D2 JUMP JUMPDEST PUSH1 0x7 DUP4 ADD PUSH2 0x100 PUSH2 0xFF00 NOT DUP3 SLOAD AND OR SWAP1 SSTORE DUP2 PUSH1 0x9 DUP5 ADD SSTORE PUSH2 0x82D JUMP JUMPDEST CALLVALUE PUSH2 0x106 JUMPI PUSH1 0x0 CALLDATASIZE PUSH1 0x3 NOT ADD SLT PUSH2 0x106 JUMPI PUSH1 0x40 MLOAD DUP1 PUSH1 0x4 SLOAD DUP1 DUP3 MSTORE DUP3 PUSH1 0x20 DUP1 SWAP4 ADD PUSH1 0x4 PUSH1 0x0 MSTORE PUSH32 0x8A35ACFBC15FF81A39AE7D344FD709F28E8600B4AA8C65C6B64BFE7FE36BD19B SWAP3 PUSH1 0x0 JUMPDEST DUP6 DUP3 DUP3 LT PUSH2 0x98E JUMPI POP POP POP PUSH2 0x97A SWAP3 POP SUB DUP4 PUSH2 0x1344 JUMP JUMPDEST PUSH2 0x391 PUSH1 0x40 MLOAD SWAP3 DUP3 DUP5 SWAP4 DUP5 MSTORE DUP4 ADD SWAP1 PUSH2 0x1209 JUMP JUMPDEST DUP6 SLOAD DUP5 MSTORE PUSH1 0x1 SWAP6 DUP7 ADD SWAP6 DUP9 SWAP6 POP SWAP4 ADD SWAP3 ADD PUSH2 0x963 JUMP JUMPDEST CALLVALUE PUSH2 0x106 JUMPI PUSH1 0x0 CALLDATASIZE PUSH1 0x3 NOT ADD SLT PUSH2 0x106 JUMPI PUSH1 0x20 PUSH1 0x2 SLOAD PUSH1 0x40 MLOAD SWAP1 DUP2 MSTORE RETURN JUMPDEST CALLVALUE PUSH2 0x106 JUMPI PUSH1 0x20 CALLDATASIZE PUSH1 0x3 NOT ADD SLT PUSH2 0x106 JUMPI PUSH1 0x4 CALLDATALOAD PUSH1 0x0 MSTORE PUSH1 0x3 PUSH1 0x20 MSTORE PUSH1 0x20 PUSH1 0x40 PUSH1 0x0 KECCAK256 PUSH1 0x1 DUP1 PUSH1 0xA0 SHL SUB DUP2 SLOAD AND ISZERO ISZERO SWAP1 DUP2 PUSH2 0xA34 JUMPI JUMPDEST DUP2 PUSH2 0xA22 JUMPI JUMPDEST DUP2 PUSH2 0xA0F JUMPI JUMPDEST POP PUSH1 0x40 MLOAD SWAP1 ISZERO ISZERO DUP2 MSTORE RETURN JUMPDEST PUSH1 0xFF SWAP2 POP PUSH1 0x7 ADD SLOAD PUSH1 0x10 SHR AND ISZERO DUP3 PUSH2 0xA04 JUMP JUMPDEST PUSH1 0x7 DUP2 ADD SLOAD PUSH1 0x8 SHR PUSH1 0xFF AND SWAP2 POP PUSH2 0x9FE JUMP JUMPDEST PUSH1 0x7 DUP2 ADD SLOAD PUSH1 0xFF AND SWAP2 POP PUSH2 0x9F8 JUMP JUMPDEST CALLVALUE PUSH2 0x106 JUMPI PUSH1 0xE0 CALLDATASIZE PUSH1 0x3 NOT ADD SLT PUSH2 0x106 JUMPI PUSH1 0x4 CALLDATALOAD PUSH1 0x1 PUSH1 0x1 PUSH1 0xA0 SHL SUB DUP2 AND SWAP1 SUB PUSH2 0x106 JUMPI PUSH1 0x24 CALLDATALOAD PUSH1 0x1 PUSH1 0x1 PUSH1 0xA0 SHL SUB DUP2 AND SWAP1 SUB PUSH2 0x106 JUMPI PUSH1 0x64 CALLDATALOAD PUSH1 0x1 PUSH1 0x1 PUSH1 0x40 SHL SUB DUP2 GT PUSH2 0x106 JUMPI PUSH2 0xA99 SWAP1 CALLDATASIZE SWAP1 PUSH1 0x4 ADD PUSH2 0x11DC JUMP JUMPDEST SWAP1 PUSH1 0xA4 CALLDATALOAD PUSH1 0x1 PUSH1 0x1 PUSH1 0x40 SHL SUB DUP2 GT PUSH2 0x106 JUMPI PUSH2 0xAB9 SWAP1 CALLDATASIZE SWAP1 PUSH1 0x4 ADD PUSH2 0x11DC JUMP JUMPDEST SWAP2 SWAP1 PUSH1 0xC4 CALLDATALOAD PUSH1 0x1 PUSH1 0x1 PUSH1 0x40 SHL SUB DUP2 GT PUSH2 0x106 JUMPI PUSH2 0xADA SWAP1 CALLDATASIZE SWAP1 PUSH1 0x4 ADD PUSH2 0x11DC JUMP JUMPDEST POP PUSH1 0x2 SLOAD SWAP1 PUSH2 0xAEA CALLDATASIZE DUP8 DUP7 PUSH2 0x167A JUMP JUMPDEST PUSH1 0x20 DUP2 MLOAD SWAP2 ADD KECCAK256 SWAP2 PUSH2 0xAFD CALLDATASIZE DUP8 DUP7 PUSH2 0x167A JUMP JUMPDEST PUSH1 0x20 DUP2 MLOAD SWAP2 ADD KECCAK256 PUSH1 0x40 MLOAD SWAP4 PUSH32 0x817C1FC8AC48A12DB8704C713DD56AC7346D10195D5F9657178C4A9B0BBAEFA2 PUSH1 0x20 DUP7 ADD MSTORE PUSH1 0x1 DUP1 PUSH1 0xA0 SHL SUB PUSH1 0x4 CALLDATALOAD AND PUSH1 0x40 DUP7 ADD MSTORE PUSH1 0x1 DUP1 PUSH1 0xA0 SHL SUB PUSH1 0x24 CALLDATALOAD AND PUSH1 0x60 DUP7 ADD MSTORE PUSH1 0x44 CALLDATALOAD PUSH1 0x80 DUP7 ADD MSTORE PUSH1 0xA0 DUP6 ADD MSTORE PUSH1 0x84 CALLDATALOAD PUSH1 0xC0 DUP6 ADD MSTORE PUSH1 0xE0 DUP5 ADD MSTORE PUSH1 0xE0 DUP4 MSTORE DUP3 PUSH2 0x100 DUP2 ADD LT PUSH1 0x1 PUSH1 0x1 PUSH1 0x40 SHL SUB PUSH2 0x100 DUP6 ADD GT OR PUSH2 0x234 JUMPI PUSH2 0x100 DUP4 ADD PUSH1 0x40 MSTORE DUP3 MLOAD PUSH1 0x20 DUP5 ADD KECCAK256 SWAP1 PUSH2 0x1901 PUSH1 0xF0 SHL PUSH2 0x120 DUP6 ADD MSTORE PUSH2 0x122 DUP5 ADD MSTORE PUSH2 0x142 DUP4 ADD MSTORE PUSH1 0x42 PUSH2 0x100 DUP4 ADD MSTORE PUSH2 0x100 DUP3 ADD PUSH2 0x180 DUP4 ADD LT PUSH1 0x1 PUSH1 0x1 PUSH1 0x40 SHL SUB PUSH2 0x180 DUP5 ADD GT OR PUSH2 0x234 JUMPI PUSH2 0x180 DUP3 ADD PUSH1 0x40 MSTORE PUSH2 0x100 DUP3 ADD MLOAD PUSH2 0x120 DUP4 ADD KECCAK256 PUSH1 0x40 DUP3 ADD CALLDATALOAD PUSH1 0x0 BYTE SWAP1 PUSH1 0x1B DUP3 LT PUSH2 0x114E JUMPI JUMPDEST DUP4 PUSH1 0x20 PUSH1 0x0 SWAP5 PUSH1 0xFF PUSH1 0x80 SWAP6 PUSH2 0x180 SWAP6 DUP7 DUP6 SWAP11 ADD MSTORE AND PUSH2 0x1A0 DUP5 ADD MSTORE DUP1 CALLDATALOAD PUSH2 0x1C0 DUP5 ADD MSTORE ADD CALLDATALOAD PUSH2 0x1E0 DUP3 ADD MSTORE DUP4 DUP1 MSTORE ADD PUSH1 0x1 GAS STATICCALL ISZERO PUSH2 0x1142 JUMPI PUSH1 0x0 MLOAD PUSH1 0x1 PUSH1 0x1 PUSH1 0xA0 SHL SUB PUSH1 0x4 CALLDATALOAD DUP2 AND SWAP2 AND SUB PUSH2 0x10FD JUMPI PUSH1 0x40 MLOAD PUSH1 0x20 DUP2 ADD SWAP1 PUSH12 0xFFFFFFFFFFFFFFFFFFFFFFFF NOT DUP1 PUSH1 0x4 CALLDATALOAD PUSH1 0x60 SHL AND DUP4 MSTORE PUSH1 0x24 CALLDATALOAD PUSH1 0x60 SHL AND PUSH1 0x34 DUP3 ADD MSTORE PUSH1 0x44 CALLDATALOAD PUSH1 0x48 DUP3 ADD MSTORE DUP6 DUP5 PUSH1 0x68 DUP4 ADD CALLDATACOPY PUSH2 0xCB2 PUSH1 0xA8 DUP3 DUP8 DUP10 DUP3 ADD PUSH1 0x84 CALLDATALOAD PUSH1 0x68 DUP3 ADD MSTORE DUP2 DUP9 PUSH1 0x88 DUP4 ADD CALLDATACOPY ADD TIMESTAMP PUSH1 0x88 DUP3 ADD MSTORE SUB PUSH1 0x88 DUP2 ADD DUP5 MSTORE ADD DUP3 PUSH2 0x1344 JUMP JUMPDEST MLOAD SWAP1 KECCAK256 SWAP3 PUSH1 0x40 MLOAD PUSH2 0xCC2 DUP2 PUSH2 0x130D JUMP JUMPDEST PUSH1 0x1 PUSH1 0x1 PUSH1 0xA0 SHL SUB PUSH1 0x4 CALLDATALOAD DUP2 AND DUP3 MSTORE PUSH1 0x24 CALLDATALOAD AND PUSH1 0x20 DUP3 ADD MSTORE PUSH1 0x44 CALLDATALOAD PUSH1 0x40 DUP3 ADD MSTORE PUSH2 0xCED CALLDATASIZE DUP8 DUP7 PUSH2 0x167A JUMP JUMPDEST PUSH1 0x60 DUP3 ADD MSTORE PUSH1 0x84 CALLDATALOAD PUSH1 0x80 DUP3 ADD MSTORE PUSH2 0xD05 CALLDATASIZE DUP4 DUP6 PUSH2 0x167A JUMP JUMPDEST PUSH1 0xA0 DUP3 ADD MSTORE TIMESTAMP PUSH1 0xC0 DUP3 ADD MSTORE PUSH1 0x0 PUSH1 0xE0 DUP3 ADD MSTORE PUSH1 0x0 PUSH2 0x100 DUP3 ADD MSTORE PUSH1 0x0 PUSH2 0x120 DUP3 ADD MSTORE PUSH1 0x0 PUSH2 0x140 DUP3 ADD MSTORE PUSH1 0x0 PUSH2 0x160 DUP3 ADD MSTORE DUP5 PUSH1 0x0 MSTORE PUSH1 0x3 PUSH1 0x20 MSTORE PUSH1 0x40 PUSH1 0x0 KECCAK256 SWAP1 PUSH1 0x1 DUP1 PUSH1 0xA0 SHL SUB DUP2 MLOAD AND PUSH12 0xFFFFFFFFFFFFFFFFFFFFFFFF PUSH1 0xA0 SHL SWAP1 DUP2 DUP5 SLOAD AND OR DUP4 SSTORE PUSH1 0x1 DUP4 ADD SWAP1 PUSH1 0x1 DUP1 PUSH1 0xA0 SHL SUB PUSH1 0x20 DUP5 ADD MLOAD AND SWAP1 DUP3 SLOAD AND OR SWAP1 SSTORE PUSH1 0x40 DUP2 ADD MLOAD PUSH1 0x2 DUP4 ADD SSTORE PUSH1 0x60 DUP2 ADD MLOAD DUP1 MLOAD SWAP1 PUSH1 0x1 PUSH1 0x1 PUSH1 0x40 SHL SUB DUP3 GT PUSH2 0x234 JUMPI DUP2 SWAP1 PUSH2 0xDB0 PUSH1 0x3 DUP7 ADD SLOAD PUSH2 0x123D JUMP JUMPDEST PUSH1 0x1F DUP2 GT PUSH2 0x10AA JUMPI JUMPDEST POP PUSH1 0x20 SWAP1 PUSH1 0x1F DUP4 GT PUSH1 0x1 EQ PUSH2 0x1038 JUMPI PUSH1 0x0 SWAP3 PUSH2 0x102D JUMPI JUMPDEST POP POP DUP2 PUSH1 0x1 SHL SWAP2 PUSH1 0x0 NOT SWAP1 PUSH1 0x3 SHL SHR NOT AND OR PUSH1 0x3 DUP4 ADD SSTORE JUMPDEST PUSH1 0x80 DUP2 ADD MLOAD PUSH1 0x4 DUP4 ADD SSTORE PUSH1 0xA0 DUP2 ADD MLOAD DUP1 MLOAD SWAP1 PUSH1 0x1 PUSH1 0x1 PUSH1 0x40 SHL SUB DUP3 GT PUSH2 0x234 JUMPI PUSH2 0xE15 PUSH1 0x5 DUP6 ADD SLOAD PUSH2 0x123D JUMP JUMPDEST PUSH1 0x1F DUP2 GT PUSH2 0xFE6 JUMPI JUMPDEST POP PUSH1 0x20 SWAP1 PUSH1 0x1F DUP4 GT PUSH1 0x1 EQ PUSH2 0xF70 JUMPI SWAP2 DUP1 PUSH1 0x9 SWAP5 SWAP3 PUSH2 0x160 SWAP5 PUSH1 0x0 SWAP3 PUSH2 0xF65 JUMPI JUMPDEST POP POP DUP2 PUSH1 0x1 SHL SWAP2 PUSH1 0x0 NOT SWAP1 PUSH1 0x3 SHL SHR NOT AND OR PUSH1 0x5 DUP6 ADD SSTORE JUMPDEST PUSH1 0xC0 DUP2 ADD MLOAD PUSH1 0x6 DUP6 ADD SSTORE PUSH1 0x7 DUP5 ADD PUSH1 0xE0 DUP3 ADD MLOAD ISZERO ISZERO DUP2 SLOAD PUSH2 0xFF00 PUSH2 0x100 DUP6 ADD MLOAD ISZERO ISZERO SWAP2 PUSH1 0xFF PUSH3 0xFF0000 PUSH2 0x120 DUP9 ADD MLOAD ISZERO ISZERO PUSH1 0x10 SHL AND SWAP5 AND SWAP1 PUSH3 0xFFFFFF NOT AND OR SWAP2 PUSH1 0x8 SHL AND OR OR SWAP1 SSTORE PUSH2 0x140 DUP2 ADD MLOAD PUSH1 0x8 DUP6 ADD SSTORE ADD MLOAD SWAP2 ADD SSTORE PUSH1 0x4 SLOAD PUSH9 0x10000000000000000 DUP2 LT ISZERO PUSH2 0x234 JUMPI PUSH2 0xF1F SWAP4 PUSH2 0xEDA DUP3 PUSH1 0x1 PUSH2 0xF09 SWAP5 ADD PUSH1 0x4 SSTORE PUSH2 0x1449 JUMP JUMPDEST DUP2 SLOAD SWAP1 PUSH1 0x3 SHL SWAP1 DUP9 DUP3 SHL SWAP2 PUSH1 0x0 NOT SWAP1 SHL NOT AND OR SWAP1 SSTORE PUSH1 0x40 MLOAD SWAP7 PUSH1 0x44 CALLDATALOAD DUP9 MSTORE PUSH1 0xA0 PUSH1 0x20 DUP10 ADD MSTORE PUSH1 0xA0 DUP9 ADD SWAP2 PUSH2 0x16B1 JUMP JUMPDEST SWAP2 PUSH1 0x84 CALLDATALOAD PUSH1 0x40 DUP8 ADD MSTORE DUP6 DUP4 SUB PUSH1 0x60 DUP8 ADD MSTORE PUSH2 0x16B1 JUMP JUMPDEST TIMESTAMP PUSH1 0x80 DUP5 ADD MSTORE PUSH1 0x1 PUSH1 0x1 PUSH1 0xA0 SHL SUB PUSH1 0x24 CALLDATALOAD DUP2 AND SWAP4 PUSH1 0x4 CALLDATALOAD SWAP1 SWAP2 AND SWAP3 SWAP2 PUSH32 0x5B4D9E81317D56B613B6CC8D26D7C151D8A6110EE5E146FF25C26EF76F274F39 SWAP2 SWAP1 DUP2 SWAP1 SUB SWAP1 LOG4 STOP JUMPDEST ADD MLOAD SWAP1 POP DUP12 DUP1 PUSH2 0xE3F JUMP JUMPDEST SWAP1 PUSH1 0x5 DUP6 ADD PUSH1 0x0 MSTORE PUSH1 0x20 PUSH1 0x0 KECCAK256 SWAP2 PUSH1 0x0 JUMPDEST PUSH1 0x1F NOT DUP6 AND DUP2 LT PUSH2 0xFCE JUMPI POP SWAP3 PUSH1 0x9 SWAP5 SWAP3 PUSH1 0x1 SWAP3 PUSH2 0x160 SWAP6 DUP4 PUSH1 0x1F NOT DUP2 AND LT PUSH2 0xFB5 JUMPI JUMPDEST POP POP POP DUP2 SHL ADD PUSH1 0x5 DUP6 ADD SSTORE PUSH2 0xE57 JUMP JUMPDEST ADD MLOAD PUSH1 0x0 NOT PUSH1 0xF8 DUP5 PUSH1 0x3 SHL AND SHR NOT AND SWAP1 SSTORE DUP12 DUP1 DUP1 PUSH2 0xFA5 JUMP JUMPDEST SWAP2 SWAP3 PUSH1 0x20 PUSH1 0x1 DUP2 SWAP3 DUP7 DUP6 ADD MLOAD DUP2 SSTORE ADD SWAP5 ADD SWAP3 ADD PUSH2 0xF81 JUMP JUMPDEST PUSH1 0x5 DUP6 ADD PUSH1 0x0 MSTORE PUSH1 0x20 PUSH1 0x0 KECCAK256 PUSH1 0x1F DUP5 ADD PUSH1 0x5 SHR DUP2 ADD PUSH1 0x20 DUP6 LT PUSH2 0x1026 JUMPI JUMPDEST PUSH1 0x1F DUP4 ADD PUSH1 0x5 SHR DUP3 ADD DUP2 LT PUSH2 0x101A JUMPI POP POP PUSH2 0xE1E JUMP JUMPDEST PUSH1 0x0 DUP2 SSTORE PUSH1 0x1 ADD PUSH2 0x1004 JUMP JUMPDEST POP DUP1 PUSH2 0x1004 JUMP JUMPDEST ADD MLOAD SWAP1 POP DUP10 DUP1 PUSH2 0xDD0 JUMP JUMPDEST SWAP3 POP PUSH1 0x3 DUP6 ADD PUSH1 0x0 MSTORE PUSH1 0x20 PUSH1 0x0 KECCAK256 SWAP1 PUSH1 0x0 SWAP4 JUMPDEST PUSH1 0x1F NOT DUP5 AND DUP6 LT PUSH2 0x108F JUMPI PUSH1 0x1 SWAP5 POP DUP4 PUSH1 0x1F NOT DUP2 AND LT PUSH2 0x1076 JUMPI JUMPDEST POP POP POP DUP2 SHL ADD PUSH1 0x3 DUP4 ADD SSTORE PUSH2 0xDE8 JUMP JUMPDEST ADD MLOAD PUSH1 0x0 NOT PUSH1 0xF8 DUP5 PUSH1 0x3 SHL AND SHR NOT AND SWAP1 SSTORE DUP10 DUP1 DUP1 PUSH2 0x1066 JUMP JUMPDEST DUP2 DUP2 ADD MLOAD DUP4 SSTORE PUSH1 0x20 SWAP5 DUP6 ADD SWAP5 PUSH1 0x1 SWAP1 SWAP4 ADD SWAP3 SWAP1 SWAP2 ADD SWAP1 PUSH2 0x104B JUMP JUMPDEST SWAP1 SWAP2 POP PUSH1 0x3 DUP6 ADD PUSH1 0x0 MSTORE PUSH1 0x20 PUSH1 0x0 KECCAK256 PUSH1 0x1F DUP5 ADD PUSH1 0x5 SHR DUP2 ADD PUSH1 0x20 DUP6 LT PUSH2 0x10F6 JUMPI JUMPDEST SWAP1 DUP5 SWAP4 SWAP3 SWAP2 JUMPDEST PUSH1 0x1F DUP4 ADD PUSH1 0x5 SHR DUP3 ADD DUP2 LT PUSH2 0x10E7 JUMPI POP POP PUSH2 0xDB9 JUMP JUMPDEST PUSH1 0x0 DUP2 SSTORE DUP6 SWAP5 POP PUSH1 0x1 ADD PUSH2 0x10D1 JUMP JUMPDEST POP DUP1 PUSH2 0x10CB JUMP JUMPDEST PUSH1 0x40 MLOAD PUSH3 0x461BCD PUSH1 0xE5 SHL DUP2 MSTORE PUSH1 0x20 PUSH1 0x4 DUP3 ADD MSTORE PUSH1 0x1E PUSH1 0x24 DUP3 ADD MSTORE PUSH32 0x5472616465206D757374206265207369676E65642062792073656E6465720000 PUSH1 0x44 DUP3 ADD MSTORE PUSH1 0x64 SWAP1 REVERT JUMPDEST PUSH1 0x40 MLOAD RETURNDATASIZE PUSH1 0x0 DUP3 RETURNDATACOPY RETURNDATASIZE SWAP1 REVERT JUMPDEST SWAP2 SWAP1 PUSH1 0xFF PUSH1 0x1B DUP3 ADD GT PUSH2 0x59F JUMPI SWAP1 SWAP2 PUSH1 0x1B SWAP1 SWAP2 ADD SWAP1 PUSH2 0xBFA JUMP JUMPDEST CALLVALUE PUSH2 0x106 JUMPI PUSH1 0x0 CALLDATASIZE PUSH1 0x3 NOT ADD SLT PUSH2 0x106 JUMPI PUSH1 0x20 PUSH1 0x40 MLOAD PUSH32 0x817C1FC8AC48A12DB8704C713DD56AC7346D10195D5F9657178C4A9B0BBAEFA2 DUP2 MSTORE RETURN JUMPDEST CALLVALUE PUSH2 0x106 JUMPI PUSH1 0x0 CALLDATASIZE PUSH1 0x3 NOT ADD SLT PUSH2 0x106 JUMPI DUP1 PUSH32 0x56C6BA3A31145B0CC8DD9F3E6622D7F449E320C5EF9204F09EECBD68AE810BD1 PUSH1 0x20 SWAP3 MSTORE RETURN JUMPDEST SWAP2 DUP2 PUSH1 0x1F DUP5 ADD SLT ISZERO PUSH2 0x106 JUMPI DUP3 CALLDATALOAD SWAP2 PUSH1 0x1 PUSH1 0x1 PUSH1 0x40 SHL SUB DUP4 GT PUSH2 0x106 JUMPI PUSH1 0x20 DUP4 DUP2 DUP7 ADD SWAP6 ADD ADD GT PUSH2 0x106 JUMPI JUMP JUMPDEST SWAP1 DUP2 MLOAD DUP1 DUP3 MSTORE PUSH1 0x20 DUP1 DUP1 SWAP4 ADD SWAP4 ADD SWAP2 PUSH1 0x0 JUMPDEST DUP3 DUP2 LT PUSH2 0x1229 JUMPI POP POP POP POP SWAP1 JUMP JUMPDEST DUP4 MLOAD DUP6 MSTORE SWAP4 DUP2 ADD SWAP4 SWAP3 DUP2 ADD SWAP3 PUSH1 0x1 ADD PUSH2 0x121B JUMP JUMPDEST SWAP1 PUSH1 0x1 DUP3 DUP2 SHR SWAP3 AND DUP1 ISZERO PUSH2 0x126D JUMPI JUMPDEST PUSH1 0x20 DUP4 LT EQ PUSH2 0x1257 JUMPI JUMP JUMPDEST PUSH4 0x4E487B71 PUSH1 0xE0 SHL PUSH1 0x0 MSTORE PUSH1 0x22 PUSH1 0x4 MSTORE PUSH1 0x24 PUSH1 0x0 REVERT JUMPDEST SWAP2 PUSH1 0x7F AND SWAP2 PUSH2 0x124C JUMP JUMPDEST SWAP1 PUSH1 0x0 SWAP3 SWAP2 DUP1 SLOAD SWAP2 PUSH2 0x1288 DUP4 PUSH2 0x123D JUMP JUMPDEST SWAP2 DUP3 DUP3 MSTORE PUSH1 0x1 SWAP4 DUP5 DUP2 AND SWAP1 DUP2 PUSH1 0x0 EQ PUSH2 0x12EA JUMPI POP PUSH1 0x1 EQ PUSH2 0x12AA JUMPI JUMPDEST POP POP POP POP JUMP JUMPDEST SWAP1 SWAP2 SWAP4 SWAP5 POP PUSH1 0x0 MSTORE PUSH1 0x20 SWAP3 DUP4 PUSH1 0x0 KECCAK256 SWAP3 DUP5 PUSH1 0x0 SWAP5 JUMPDEST DUP4 DUP7 LT PUSH2 0x12D6 JUMPI POP POP POP POP ADD ADD SWAP1 CODESIZE DUP1 DUP1 DUP1 PUSH2 0x12A4 JUMP JUMPDEST DUP1 SLOAD DUP6 DUP8 ADD DUP4 ADD MSTORE SWAP5 ADD SWAP4 DUP6 SWAP1 DUP3 ADD PUSH2 0x12BF JUMP JUMPDEST SWAP3 SWAP5 POP POP POP PUSH1 0x20 SWAP4 SWAP5 POP PUSH1 0xFF NOT AND DUP4 DUP4 ADD MSTORE ISZERO ISZERO PUSH1 0x5 SHL ADD ADD SWAP1 CODESIZE DUP1 DUP1 DUP1 PUSH2 0x12A4 JUMP JUMPDEST PUSH2 0x180 DUP2 ADD SWAP1 DUP2 LT PUSH1 0x1 PUSH1 0x1 PUSH1 0x40 SHL SUB DUP3 GT OR PUSH2 0x234 JUMPI PUSH1 0x40 MSTORE JUMP JUMPDEST PUSH1 0x40 DUP2 ADD SWAP1 DUP2 LT PUSH1 0x1 PUSH1 0x1 PUSH1 0x40 SHL SUB DUP3 GT OR PUSH2 0x234 JUMPI PUSH1 0x40 MSTORE JUMP JUMPDEST SWAP1 PUSH1 0x1F DUP1 NOT SWAP2 ADD AND DUP2 ADD SWAP1 DUP2 LT PUSH1 0x1 PUSH1 0x1 PUSH1 0x40 SHL SUB DUP3 GT OR PUSH2 0x234 JUMPI PUSH1 0x40 MSTORE JUMP JUMPDEST SWAP2 SWAP1 DUP3 MLOAD SWAP3 DUP4 DUP3 MSTORE PUSH1 0x0 JUMPDEST DUP5 DUP2 LT PUSH2 0x1391 JUMPI POP POP DUP3 PUSH1 0x0 PUSH1 0x20 DUP1 SWAP5 SWAP6 DUP5 ADD ADD MSTORE PUSH1 0x1F DUP1 NOT SWAP2 ADD AND ADD ADD SWAP1 JUMP JUMPDEST PUSH1 0x20 DUP2 DUP4 ADD DUP2 ADD MLOAD DUP5 DUP4 ADD DUP3 ADD MSTORE ADD PUSH2 0x1370 JUMP JUMPDEST SWAP1 PUSH1 0x1 DUP1 PUSH1 0xA0 SHL SUB DUP1 DUP4 MLOAD AND DUP3 MSTORE PUSH1 0x20 DUP4 ADD MLOAD AND PUSH1 0x20 DUP3 ADD MSTORE PUSH1 0x40 DUP3 ADD MLOAD PUSH1 0x40 DUP3 ADD MSTORE PUSH2 0x1400 PUSH2 0x13E4 PUSH1 0x60 DUP5 ADD MLOAD PUSH2 0x180 DUP1 PUSH1 0x60 DUP7 ADD MSTORE DUP5 ADD SWAP1 PUSH2 0x1365 JUMP JUMPDEST PUSH1 0x80 DUP5 ADD MLOAD PUSH1 0x80 DUP5 ADD MSTORE PUSH1 0xA0 DUP5 ADD MLOAD DUP4 DUP3 SUB PUSH1 0xA0 DUP6 ADD MSTORE PUSH2 0x1365 JUMP JUMPDEST SWAP2 PUSH1 0xC0 DUP2 ADD MLOAD PUSH1 0xC0 DUP4 ADD MSTORE PUSH1 0xE0 DUP2 ADD MLOAD ISZERO ISZERO PUSH1 0xE0 DUP4 ADD MSTORE PUSH2 0x100 DUP1 DUP3 ADD MLOAD ISZERO ISZERO SWAP1 DUP4 ADD MSTORE PUSH2 0x120 DUP1 DUP3 ADD MLOAD ISZERO ISZERO SWAP1 DUP4 ADD MSTORE PUSH2 0x140 DUP1 DUP3 ADD MLOAD SWAP1 DUP4 ADD MSTORE PUSH2 0x160 DUP1 SWAP2 ADD MLOAD SWAP2 ADD MSTORE SWAP1 JUMP JUMPDEST PUSH1 0x4 SLOAD DUP2 LT ISZERO PUSH2 0x1480 JUMPI PUSH1 0x4 PUSH1 0x0 MSTORE PUSH32 0x8A35ACFBC15FF81A39AE7D344FD709F28E8600B4AA8C65C6B64BFE7FE36BD19B ADD SWAP1 PUSH1 0x0 SWAP1 JUMP JUMPDEST PUSH4 0x4E487B71 PUSH1 0xE0 SHL PUSH1 0x0 MSTORE PUSH1 0x32 PUSH1 0x4 MSTORE PUSH1 0x24 PUSH1 0x0 REVERT JUMPDEST PUSH1 0x1 PUSH1 0x1 PUSH1 0x40 SHL SUB DUP2 GT PUSH2 0x234 JUMPI PUSH1 0x5 SHL PUSH1 0x20 ADD SWAP1 JUMP JUMPDEST PUSH1 0xFF DUP2 EQ PUSH2 0x14EB JUMPI PUSH1 0xFF DUP2 AND SWAP1 PUSH1 0x1F DUP3 GT PUSH2 0x14D9 JUMPI PUSH1 0x40 MLOAD SWAP2 PUSH2 0x14CF DUP4 PUSH2 0x1329 JUMP JUMPDEST DUP3 MSTORE PUSH1 0x20 DUP3 ADD MSTORE SWAP1 JUMP JUMPDEST PUSH1 0x40 MLOAD PUSH4 0x2CD44AC3 PUSH1 0xE2 SHL DUP2 MSTORE PUSH1 0x4 SWAP1 REVERT JUMPDEST POP PUSH1 0x40 MLOAD PUSH1 0x0 DUP2 DUP2 SLOAD SWAP2 PUSH2 0x14FE DUP4 PUSH2 0x123D JUMP JUMPDEST DUP1 DUP4 MSTORE SWAP3 PUSH1 0x1 SWAP1 DUP2 DUP2 AND SWAP1 DUP2 ISZERO PUSH2 0x1585 JUMPI POP PUSH1 0x1 EQ PUSH2 0x1528 JUMPI JUMPDEST POP PUSH2 0x1525 SWAP3 POP SUB DUP3 PUSH2 0x1344 JUMP JUMPDEST SWAP1 JUMP JUMPDEST PUSH1 0x0 DUP1 DUP1 MSTORE SWAP2 POP PUSH32 0x290DECD9548B62A8D60345A988386FC84BA6BC95484008F6362F93160EF3E563 JUMPDEST DUP5 DUP4 LT PUSH2 0x156A JUMPI POP PUSH2 0x1525 SWAP4 POP POP DUP2 ADD PUSH1 0x20 ADD CODESIZE PUSH2 0x1518 JUMP JUMPDEST DUP2 SWAP4 POP SWAP1 DUP2 PUSH1 0x20 SWAP3 SLOAD DUP4 DUP6 DUP10 ADD ADD MSTORE ADD SWAP2 ADD SWAP1 SWAP2 DUP5 SWAP3 PUSH2 0x1551 JUMP JUMPDEST SWAP1 POP PUSH1 0x20 SWAP3 POP PUSH2 0x1525 SWAP5 SWAP2 POP PUSH1 0xFF NOT AND DUP3 DUP5 ADD MSTORE ISZERO ISZERO PUSH1 0x5 SHL DUP3 ADD ADD CODESIZE PUSH2 0x1518 JUMP JUMPDEST PUSH1 0xFF DUP2 EQ PUSH2 0x15C9 JUMPI PUSH1 0xFF DUP2 AND SWAP1 PUSH1 0x1F DUP3 GT PUSH2 0x14D9 JUMPI PUSH1 0x40 MLOAD SWAP2 PUSH2 0x14CF DUP4 PUSH2 0x1329 JUMP JUMPDEST POP PUSH1 0x40 MLOAD PUSH1 0x0 DUP2 PUSH1 0x1 SWAP2 DUP3 SLOAD SWAP3 PUSH2 0x15DF DUP5 PUSH2 0x123D JUMP JUMPDEST DUP1 DUP5 MSTORE SWAP4 DUP2 DUP2 AND SWAP1 DUP2 ISZERO PUSH2 0x1585 JUMPI POP PUSH1 0x1 EQ PUSH2 0x1602 JUMPI POP PUSH2 0x1525 SWAP3 POP SUB DUP3 PUSH2 0x1344 JUMP JUMPDEST PUSH1 0x0 DUP2 DUP2 MSTORE SWAP2 POP PUSH32 0xB10E2D527612073B26EECDFD717E6A320CF44B4AFAC2B0732D9FCBE2B7FA0CF6 JUMPDEST DUP5 DUP4 LT PUSH2 0x1644 JUMPI POP PUSH2 0x1525 SWAP4 POP POP DUP2 ADD PUSH1 0x20 ADD CODESIZE PUSH2 0x1518 JUMP JUMPDEST DUP2 SWAP4 POP SWAP1 DUP2 PUSH1 0x20 SWAP3 SLOAD DUP4 DUP6 DUP10 ADD ADD MSTORE ADD SWAP2 ADD SWAP1 SWAP2 DUP5 SWAP3 PUSH2 0x162B JUMP JUMPDEST PUSH1 0x1 PUSH1 0x1 PUSH1 0x40 SHL SUB DUP2 GT PUSH2 0x234 JUMPI PUSH1 0x1F ADD PUSH1 0x1F NOT AND PUSH1 0x20 ADD SWAP1 JUMP JUMPDEST SWAP3 SWAP2 SWAP3 PUSH2 0x1686 DUP3 PUSH2 0x165F JUMP JUMPDEST SWAP2 PUSH2 0x1694 PUSH1 0x40 MLOAD SWAP4 DUP5 PUSH2 0x1344 JUMP JUMPDEST DUP3 SWAP5 DUP2 DUP5 MSTORE DUP2 DUP4 ADD GT PUSH2 0x106 JUMPI DUP3 DUP2 PUSH1 0x20 SWAP4 DUP5 PUSH1 0x0 SWAP7 ADD CALLDATACOPY ADD ADD MSTORE JUMP JUMPDEST SWAP1 DUP1 PUSH1 0x20 SWAP4 SWAP3 DUP2 DUP5 MSTORE DUP5 DUP5 ADD CALLDATACOPY PUSH1 0x0 DUP3 DUP3 ADD DUP5 ADD MSTORE PUSH1 0x1F ADD PUSH1 0x1F NOT AND ADD ADD SWAP1 JUMP JUMPDEST ISZERO PUSH2 0x16D9 JUMPI JUMP JUMPDEST PUSH1 0x40 MLOAD PUSH3 0x461BCD PUSH1 0xE5 SHL DUP2 MSTORE PUSH1 0x20 PUSH1 0x4 DUP3 ADD MSTORE PUSH1 0x19 PUSH1 0x24 DUP3 ADD MSTORE PUSH32 0x496E636F72726563742045544820616D6F756E742073656E7400000000000000 PUSH1 0x44 DUP3 ADD MSTORE PUSH1 0x64 SWAP1 REVERT JUMPDEST RETURNDATASIZE ISZERO PUSH2 0x1749 JUMPI RETURNDATASIZE SWAP1 PUSH2 0x172F DUP3 PUSH2 0x165F JUMP JUMPDEST SWAP2 PUSH2 0x173D PUSH1 0x40 MLOAD SWAP4 DUP5 PUSH2 0x1344 JUMP JUMPDEST DUP3 MSTORE RETURNDATASIZE PUSH1 0x0 PUSH1 0x20 DUP5 ADD RETURNDATACOPY JUMP JUMPDEST PUSH1 0x60 SWAP1 JUMP JUMPDEST PUSH1 0x7 DUP3 ADD PUSH3 0x10000 PUSH3 0xFF0000 NOT DUP3 SLOAD AND OR SWAP1 SSTORE PUSH1 0x1 DUP3 ADD SWAP1 PUSH1 0x1 DUP1 PUSH1 0xA0 SHL SUB DUP1 DUP4 SLOAD AND SWAP4 PUSH1 0x8 DUP2 ADD SWAP5 PUSH1 0x0 DUP1 DUP1 DUP1 DUP1 SWAP5 DUP11 SLOAD SWAP1 GAS CALL PUSH2 0x178B PUSH2 0x171E JUMP JUMPDEST POP ISZERO PUSH2 0x1866 JUMPI DUP3 DUP3 SLOAD AND SWAP1 DUP1 DUP1 DUP1 PUSH1 0x9 DUP7 ADD SWAP5 DUP6 SLOAD SWAP1 GAS CALL PUSH2 0x17AB PUSH2 0x171E JUMP JUMPDEST POP ISZERO PUSH2 0x1821 JUMPI PUSH2 0x1816 DUP4 PUSH32 0x29F91D8D577399458EFA70691D208D08A3A7B5D493E9C8D9C9AFC343AF54E5C6 SWAP5 DUP5 SLOAD AND SWAP7 SLOAD AND SWAP7 SLOAD SWAP2 SLOAD PUSH1 0x5 PUSH1 0x40 MLOAD SWAP5 DUP6 SWAP5 DUP6 MSTORE PUSH1 0xA0 PUSH1 0x20 DUP7 ADD MSTORE PUSH2 0x1802 PUSH1 0xA0 DUP7 ADD PUSH1 0x3 DUP4 ADD PUSH2 0x1277 JUMP JUMPDEST SWAP3 PUSH1 0x40 DUP7 ADD MSTORE DUP5 DUP4 SUB PUSH1 0x60 DUP7 ADD MSTORE ADD PUSH2 0x1277 JUMP JUMPDEST CALLER PUSH1 0x80 DUP4 ADD MSTORE SUB SWAP1 LOG4 JUMP JUMPDEST PUSH1 0x40 MLOAD PUSH3 0x461BCD PUSH1 0xE5 SHL DUP2 MSTORE PUSH1 0x20 PUSH1 0x4 DUP3 ADD MSTORE PUSH1 0x1D PUSH1 0x24 DUP3 ADD MSTORE PUSH32 0x455448207472616E7366657220746F2073656E646572206661696C6564000000 PUSH1 0x44 DUP3 ADD MSTORE PUSH1 0x64 SWAP1 REVERT JUMPDEST PUSH1 0x40 MLOAD PUSH3 0x461BCD PUSH1 0xE5 SHL DUP2 MSTORE PUSH1 0x20 PUSH1 0x4 DUP3 ADD MSTORE PUSH1 0x1F PUSH1 0x24 DUP3 ADD MSTORE PUSH32 0x455448207472616E7366657220746F207265636569766572206661696C656400 PUSH1 0x44 DUP3 ADD MSTORE PUSH1 0x64 SWAP1 REVERT JUMPDEST PUSH1 0x40 MLOAD SWAP1 PUSH2 0x18B8 DUP3 PUSH2 0x130D JUMP JUMPDEST DUP2 PUSH2 0x160 PUSH1 0x0 SWAP2 DUP3 DUP2 MSTORE DUP3 PUSH1 0x20 DUP3 ADD MSTORE DUP3 PUSH1 0x40 DUP3 ADD MSTORE PUSH1 0x60 DUP1 DUP3 ADD MSTORE DUP3 PUSH1 0x80 DUP3 ADD MSTORE PUSH1 0x60 PUSH1 0xA0 DUP3 ADD MSTORE DUP3 PUSH1 0xC0 DUP3 ADD MSTORE DUP3 PUSH1 0xE0 DUP3 ADD MSTORE DUP3 PUSH2 0x100 DUP3 ADD MSTORE DUP3 PUSH2 0x120 DUP3 ADD MSTORE DUP3 PUSH2 0x140 DUP3 ADD MSTORE ADD MSTORE JUMP JUMPDEST ISZERO PUSH2 0x190D JUMPI JUMP JUMPDEST PUSH1 0x40 MLOAD PUSH3 0x461BCD PUSH1 0xE5 SHL DUP2 MSTORE PUSH1 0x20 PUSH1 0x4 DUP3 ADD MSTORE PUSH1 0x14 PUSH1 0x24 DUP3 ADD MSTORE PUSH20 0x151C98591948191BD95CC81B9BDD08195E1A5CDD PUSH1 0x62 SHL PUSH1 0x44 DUP3 ADD MSTORE PUSH1 0x64 SWAP1 REVERT JUMPDEST DUP1 MLOAD DUP3 LT ISZERO PUSH2 0x1480 JUMPI PUSH1 0x20 SWAP2 PUSH1 0x5 SHL ADD ADD SWAP1 JUMP JUMPDEST PUSH1 0x7 ADD SLOAD PUSH1 0xFF DUP2 PUSH1 0x10 SHR AND PUSH1 0x0 EQ PUSH2 0x1975 JUMPI POP PUSH1 0x3 SWAP1 JUMP JUMPDEST PUSH1 0xFF DUP2 AND SWAP1 DUP2 DUP1 PUSH2 0x19B2 JUMPI JUMPDEST ISZERO PUSH2 0x198D JUMPI POP POP PUSH1 0x2 SWAP1 JUMP JUMPDEST DUP2 ISZERO PUSH2 0x19A4 JUMPI JUMPDEST POP ISZERO PUSH2 0x199F JUMPI PUSH1 0x1 SWAP1 JUMP JUMPDEST PUSH1 0x0 SWAP1 JUMP JUMPDEST PUSH1 0xFF SWAP2 POP PUSH1 0x8 SHR AND CODESIZE PUSH2 0x1994 JUMP JUMPDEST POP PUSH1 0xFF DUP2 PUSH1 0x8 SHR AND PUSH2 0x1981 JUMP INVALID LOG2 PUSH5 0x6970667358 0x22 SLT KECCAK256 0xAE 0x4D CREATE 0x1F SWAP12 0x2B 0xD5 0xDA 0xB6 0xFC PREVRANDAO 0xF9 0xD2 OR 0x4C 0x24 ADD DIV PUSH22 0x59DBF28F665403F114708050D664736F6C6343000814 STOP CALLER DUP12 PUSH20 0xC3C69BB8FE3D512ECC4CF759CC79239F7B179B0F STATICCALL 0xCA 0xA9 0xA7 0x5D MSTORE 0x2B CODECOPY BLOCKHASH 0xF "},"methodIdentifiers":{"DOMAIN_SEPARATOR()":"3644e515","FUNDS_TYPEHASH()":"1517cfb0","TRADE_TYPEHASH()":"2bba58ac","eip712Domain()":"84b0196e","getAllStoredTrades()":"6850bc60","getAllTradeHashes()":"382d08fe","getStoredTrade(bytes32)":"6c420439","getTradeCount()":"a3031b77","getTradeStatus(bytes32)":"77407399","isTradeReady(bytes32)":"3184ff8b","provideFunds(bytes32,uint256)":"3e0df32a","recordTrade(address,address,uint256,string,uint256,string,bytes)":"3178ad9c","storedTrades(bytes32)":"5ca85e9b","swapTokens(bytes32)":"46bbc6f4","tradeHashes(uint256)":"df5f0c75"}}}}}