{
  "_format": "hh-sol-artifact-1",
  "contractName": "TradeContract",
  "sourceName": "contracts/TradeContract.sol",
  "abi": [
    {
      "inputs": [],
      "stateMutability": "nonpayable",
      "type": "constructor"
    },
    {
      "inputs": [],
      "name": "InvalidShortString",
      "type": "error"
    },
    {
      "inputs": [
        {
          "internalType": "string",
          "name": "str",
          "type": "string"
        }
      ],
      "name": "StringTooLong",
      "type": "error"
    },
    {
      "anonymous": false,
      "inputs": [],
      "name": "EIP712DomainChanged",
      "type": "event"
    },
    {
      "anonymous": false,
      "inputs": [
        {
          "indexed": true,
          "internalType": "bytes32",
          "name": "tradeHash",
          "type": "bytes32"
        },
        {
          "indexed": true,
          "internalType": "address",
          "name": "funder",
          "type": "address"
        },
        {
          "indexed": false,
          "internalType": "uint256",
          "name": "amount",
          "type": "uint256"
        },
        {
          "indexed": false,
          "internalType": "string",
          "name": "currency",
          "type": "string"
        }
      ],
      "name": "FundsReceived",
      "type": "event"
    },
    {
      "anonymous": false,
      "inputs": [
        {
          "indexed": true,
          "internalType": "bytes32",
          "name": "tradeHash",
          "type": "bytes32"
        },
        {
          "indexed": true,
          "internalType": "address",
          "name": "senderAddress",
          "type": "address"
        },
        {
          "indexed": true,
          "internalType": "address",
          "name": "receiverAddress",
          "type": "address"
        },
        {
          "indexed": false,
          "internalType": "uint256",
          "name": "fromAmount",
          "type": "uint256"
        },
        {
          "indexed": false,
          "internalType": "string",
          "name": "fromCurrency",
          "type": "string"
        },
        {
          "indexed": false,
          "internalType": "uint256",
          "name": "toAmount",
          "type": "uint256"
        },
        {
          "indexed": false,
          "internalType": "string",
          "name": "toCurrency",
          "type": "string"
        },
        {
          "indexed": false,
          "internalType": "address",
          "name": "executor",
          "type": "address"
        }
      ],
      "name": "TokensSwapped",
      "type": "event"
    },
    {
      "anonymous": false,
      "inputs": [
        {
          "indexed": true,
          "internalType": "bytes32",
          "name": "tradeHash",
          "type": "bytes32"
        },
        {
          "indexed": true,
          "internalType": "address",
          "name": "senderAddress",
          "type": "address"
        },
        {
          "indexed": true,
          "internalType": "address",
          "name": "receiverAddress",
          "type": "address"
        },
        {
          "indexed": false,
          "internalType": "uint256",
          "name": "fromAmount",
          "type": "uint256"
        },
        {
          "indexed": false,
          "internalType": "string",
          "name": "fromCurrency",
          "type": "string"
        },
        {
          "indexed": false,
          "internalType": "uint256",
          "name": "toAmount",
          "type": "uint256"
        },
        {
          "indexed": false,
          "internalType": "string",
          "name": "toCurrency",
          "type": "string"
        },
        {
          "indexed": false,
          "internalType": "uint256",
          "name": "timestamp",
          "type": "uint256"
        }
      ],
      "name": "TradeRecorded",
      "type": "event"
    },
    {
      "inputs": [],
      "name": "DOMAIN_SEPARATOR",
      "outputs": [
        {
          "internalType": "bytes32",
          "name": "",
          "type": "bytes32"
        }
      ],
      "stateMutability": "view",
      "type": "function"
    },
    {
      "inputs": [],
      "name": "FUNDS_TYPEHASH",
      "outputs": [
        {
          "internalType": "bytes32",
          "name": "",
          "type": "bytes32"
        }
      ],
      "stateMutability": "view",
      "type": "function"
    },
    {
      "inputs": [],
      "name": "TRADE_TYPEHASH",
      "outputs": [
        {
          "internalType": "bytes32",
          "name": "",
          "type": "bytes32"
        }
      ],
      "stateMutability": "view",
      "type": "function"
    },
    {
      "inputs": [],
      "name": "eip712Domain",
      "outputs": [
        {
          "internalType": "bytes1",
          "name": "fields",
          "type": "bytes1"
        },
        {
          "internalType": "string",
          "name": "name",
          "type": "string"
        },
        {
          "internalType": "string",
          "name": "version",
          "type": "string"
        },
        {
          "internalType": "uint256",
          "name": "chainId",
          "type": "uint256"
        },
        {
          "internalType": "address",
          "name": "verifyingContract",
          "type": "address"
        },
        {
          "internalType": "bytes32",
          "name": "salt",
          "type": "bytes32"
        },
        {
          "internalType": "uint256[]",
          "name": "extensions",
          "type": "uint256[]"
        }
      ],
      "stateMutability": "view",
      "type": "function"
    },
    {
      "inputs": [],
      "name": "getAllStoredTrades",
      "outputs": [
        {
          "internalType": "bytes32[]",
          "name": "tradeHashesArray",
          "type": "bytes32[]"
        },
        {
          "components": [
            {
              "internalType": "address",
              "name": "senderAddress",
              "type": "address"
            },
            {
              "internalType": "address",
              "name": "receiverAddress",
              "type": "address"
            },
            {
              "internalType": "uint256",
              "name": "fromAmount",
              "type": "uint256"
            },
            {
              "internalType": "string",
              "name": "fromCurrency",
              "type": "string"
            },
            {
              "internalType": "uint256",
              "name": "toAmount",
              "type": "uint256"
            },
            {
              "internalType": "string",
              "name": "toCurrency",
              "type": "string"
            },
            {
              "internalType": "uint256",
              "name": "timestamp",
              "type": "uint256"
            },
            {
              "internalType": "bool",
              "name": "fromFunded",
              "type": "bool"
            },
            {
              "internalType": "bool",
              "name": "toFunded",
              "type": "bool"
            },
            {
              "internalType": "bool",
              "name": "executed",
              "type": "bool"
            },
            {
              "internalType": "uint256",
              "name": "fromFundedAmount",
              "type": "uint256"
            },
            {
              "internalType": "uint256",
              "name": "toFundedAmount",
              "type": "uint256"
            }
          ],
          "internalType": "struct TradeContract.StoredTrade[]",
          "name": "tradesArray",
          "type": "tuple[]"
        }
      ],
      "stateMutability": "view",
      "type": "function"
    },
    {
      "inputs": [],
      "name": "getAllTradeHashes",
      "outputs": [
        {
          "internalType": "bytes32[]",
          "name": "",
          "type": "bytes32[]"
        }
      ],
      "stateMutability": "view",
      "type": "function"
    },
    {
      "inputs": [
        {
          "internalType": "bytes32",
          "name": "tradeHash",
          "type": "bytes32"
        }
      ],
      "name": "getStoredTrade",
      "outputs": [
        {
          "components": [
            {
              "internalType": "address",
              "name": "senderAddress",
              "type": "address"
            },
            {
              "internalType": "address",
              "name": "receiverAddress",
              "type": "address"
            },
            {
              "internalType": "uint256",
              "name": "fromAmount",
              "type": "uint256"
            },
            {
              "internalType": "string",
              "name": "fromCurrency",
              "type": "string"
            },
            {
              "internalType": "uint256",
              "name": "toAmount",
              "type": "uint256"
            },
            {
              "internalType": "string",
              "name": "toCurrency",
              "type": "string"
            },
            {
              "internalType": "uint256",
              "name": "timestamp",
              "type": "uint256"
            },
            {
              "internalType": "bool",
              "name": "fromFunded",
              "type": "bool"
            },
            {
              "internalType": "bool",
              "name": "toFunded",
              "type": "bool"
            },
            {
              "internalType": "bool",
              "name": "executed",
              "type": "bool"
            },
            {
              "internalType": "uint256",
              "name": "fromFundedAmount",
              "type": "uint256"
            },
            {
              "internalType": "uint256",
              "name": "toFundedAmount",
              "type": "uint256"
            }
          ],
          "internalType": "struct TradeContract.StoredTrade",
          "name": "",
          "type": "tuple"
        }
      ],
      "stateMutability": "view",
      "type": "function"
    },
    {
      "inputs": [],
      "name": "getTradeCount",
      "outputs": [
        {
          "internalType": "uint256",
          "name": "",
          "type": "uint256"
        }
      ],
      "stateMutability": "view",
      "type": "function"
    },
    {
      "inputs": [
        {
          "internalType": "bytes32",
          "name": "tradeHash",
          "type": "bytes32"
        }
      ],
      "name": "getTradeStatus",
      "outputs": [
        {
          "internalType": "uint8",
          "name": "",
          "type": "uint8"
        }
      ],
      "stateMutability": "view",
      "type": "function"
    },
    {
      "inputs": [
        {
          "internalType": "bytes32",
          "name": "tradeHash",
          "type": "bytes32"
        }
      ],
      "name": "isTradeReady",
      "outputs": [
        {
          "internalType": "bool",
          "name": "",
          "type": "bool"
        }
      ],
      "stateMutability": "view",
      "type": "function"
    },
    {
      "inputs": [
        {
          "internalType": "bytes32",
          "name": "tradeHash",
          "type": "bytes32"
        },
        {
          "internalType": "uint256",
          "name": "amount",
          "type": "uint256"
        }
      ],
      "name": "provideFunds",
      "outputs": [],
      "stateMutability": "payable",
      "type": "function"
    },
    {
      "inputs": [
        {
          "internalType": "address",
          "name": "senderAddress",
          "type": "address"
        },
        {
          "internalType": "address",
          "name": "receiverAddress",
          "type": "address"
        },
        {
          "internalType": "uint256",
          "name": "fromAmount",
          "type": "uint256"
        },
        {
          "internalType": "string",
          "name": "fromCurrency",
          "type": "string"
        },
        {
          "internalType": "uint256",
          "name": "toAmount",
          "type": "uint256"
        },
        {
          "internalType": "string",
          "name": "toCurrency",
          "type": "string"
        },
        {
          "internalType": "bytes",
          "name": "signature",
          "type": "bytes"
        }
      ],
      "name": "recordTrade",
      "outputs": [],
      "stateMutability": "nonpayable",
      "type": "function"
    },
    {
      "inputs": [
        {
          "internalType": "bytes32",
          "name": "",
          "type": "bytes32"
        }
      ],
      "name": "storedTrades",
      "outputs": [
        {
          "internalType": "address",
          "name": "senderAddress",
          "type": "address"
        },
        {
          "internalType": "address",
          "name": "receiverAddress",
          "type": "address"
        },
        {
          "internalType": "uint256",
          "name": "fromAmount",
          "type": "uint256"
        },
        {
          "internalType": "string",
          "name": "fromCurrency",
          "type": "string"
        },
        {
          "internalType": "uint256",
          "name": "toAmount",
          "type": "uint256"
        },
        {
          "internalType": "string",
          "name": "toCurrency",
          "type": "string"
        },
        {
          "internalType": "uint256",
          "name": "timestamp",
          "type": "uint256"
        },
        {
          "internalType": "bool",
          "name": "fromFunded",
          "type": "bool"
        },
        {
          "internalType": "bool",
          "name": "toFunded",
          "type": "bool"
        },
        {
          "internalType": "bool",
          "name": "executed",
          "type": "bool"
        },
        {
          "internalType": "uint256",
          "name": "fromFundedAmount",
          "type": "uint256"
        },
        {
          "internalType": "uint256",
          "name": "toFundedAmount",
          "type": "uint256"
        }
      ],
      "stateMutability": "view",
      "type": "function"
    },
    {
      "inputs": [
        {
          "internalType": "bytes32",
          "name": "tradeHash",
          "type": "bytes32"
        }
      ],
      "name": "swapTokens",
      "outputs": [],
      "stateMutability": "nonpayable",
      "type": "function"
    },
    {
      "inputs": [
        {
          "internalType": "uint256",
          "name": "",
          "type": "uint256"
        }
      ],
      "name": "tradeHashes",
      "outputs": [
        {
          "internalType": "bytes32",
          "name": "",
          "type": "bytes32"
        }
      ],
      "stateMutability": "view",
      "type": "function"
    },
    {
      "stateMutability": "payable",
      "type": "receive"
    }
  ],
  "bytecode": "0x610160604081815234620001af576200001882620001b4565b6004825260209182810191630a0d28cb60e31b8084528151946200003c86620001b4565b6001865262000170620000dd60016004848a0195603160f81b96878152620000648a6200020a565b9a6101209b8c52620000768d620003dd565b9a6101409b8c525190209b8c60e0525190209a6101009b808d524660a0528951958691898301933091469186926080929594919560a085019660008051602062001f24833981519152865260208601526040850152606084015260018060a01b0316910152565b0394620000f3601f1996878101835282620001e6565b5190206080523060c0528588516200010b81620001b4565b8381520190815220948487516200012281620001b4565b8381520190815220855160008051602062001f24833981519152948101948552602085019590955260408401524660608401523060808401529192918260a0850103908101835282620001e6565b519020600255519161199993846200058b853960805184505060a05184505060c05184505060e05184505051835050518261013f015251816101680152f35b600080fd5b604081019081106001600160401b03821117620001d057604052565b634e487b7160e01b600052604160045260246000fd5b601f909101601f19168101906001600160401b03821190821017620001d057604052565b80516020919082811015620002a9575090601f8251116200024857808251920151908083106200023957501790565b82600019910360031b1b161790565b90604051809263305a27a960e01b82528060048301528251908160248401526000935b8285106200028f575050604492506000838284010152601f80199101168101030190fd5b84810182015186860160440152938101938593506200026b565b6001600160401b038111620001d0576000928354926001938481811c91168015620003d2575b83821014620003be57601f811162000388575b5081601f8411600114620003215750928293918392869462000315575b50501b916000199060031b1c191617905560ff90565b015192503880620002ff565b919083601f1981168780528488209488905b888383106200036d575050501062000353575b505050811b01905560ff90565b015160001960f88460031b161c1916905538808062000346565b85870151885590960195948501948793509081019062000333565b85805284601f848820920160051c820191601f860160051c015b828110620003b2575050620002e2565b878155018590620003a2565b634e487b7160e01b86526022600452602486fd5b90607f1690620002cf565b8051602090818110156200046b5750601f8251116200040a57808251920151908083106200023957501790565b90604051809263305a27a960e01b82528060048301528251908160248401526000935b82851062000451575050604492506000838284010152601f80199101168101030190fd5b84810182015186860160440152938101938593506200042d565b9192916001600160401b038111620001d05760019182548381811c911680156200057f575b828210146200056957601f811162000530575b5080601f8311600114620004e3575081929394600092620004d7575b5050600019600383901b1c191690821b17905560ff90565b015190503880620004bf565b90601f198316958460005282600020926000905b8882106200051857505083859697106200035357505050811b01905560ff90565b808785968294968601518155019501930190620004f7565b8360005283601f83600020920160051c820191601f850160051c015b8281106200055c575050620004a3565b600081550184906200054c565b634e487b7160e01b600052602260045260246000fd5b90607f16906200049056fe608080604052600436101561001d575b50361561001b57600080fd5b005b60003560e01c9081631517cfb014611147575080632bba58ac1461110c5780633178ad9c14610a435780633184ff8b146109c25780633644e515146109a4578063382d08fe146109185780633e0df32a146107d757806346bbc6f4146106d65780635ca85e9b146105d05780636850bc60146103955780636c42043914610294578063774073991461024a57806384b0196e14610129578063a3031b771461010b5763df5f0c75146100cf573861000f565b3461010657602036600319011261010657600435600454811015610106576100f86020916113ed565b90546040519160031b1c8152f35b600080fd5b34610106576000366003190112610106576020600454604051908152f35b34610106576000366003190112610106576101637f0000000000000000000000000000000000000000000000000000000000000000611451565b61018c7f000000000000000000000000000000000000000000000000000000000000000061154b565b6040516020808201928284106001600160401b038511176102345791816101e585946101d7979660405260008452604051978897600f60f81b895260e0858a015260e0890190611309565b908782036040890152611309565b91617a696060870152306080870152600060a087015285830360c0870152519182815201929160005b82811061021d57505050500390f35b83518552869550938101939281019260010161020e565b634e487b7160e01b600052604160045260246000fd5b346101065760203660031901126101065760043560005260036020526020610289604060002061028460018060a01b0382541615156118aa565b611901565b60ff60405191168152f35b34610106576020366003190112610106576102ad61184f565b50600435600052600360205261039160406000206009604051916102d0836112b1565b60018060a01b0380825416845260018201541660208401526002810154604084015260405161030d81610306816003860161121b565b03826112e8565b60608401526004810154608084015260405161033081610306816005860161121b565b60a0840152600681015460c084015260ff6007820154818116151560e0860152818160081c16151561010086015260101c16151561012084015260088101546101408401520154610160820152604051918291602083526020830190611349565b0390f35b34610106576000366003190112610106576004546103b28161143a565b6103bf60405191826112e8565b818152601f1991826103d08261143a565b019260209336858501376103e38261143a565b916103f160405193846112e8565b808352816103fe8261143a565b0160005b8181106105b557505060005b81811061048857505061042c604051936040855260408501906111ad565b938385038185015282519081865280860181808460051b8901019501936000975b84891061045a5787870388f35b9091929394958480610476838686600196030188528a51611349565b9801940198019791909493929461044d565b610494819693966113ed565b9054600391821b1c6104a683886118ed565b526104b0826113ed565b905490821b1c60005280845260096040600020610306610505604051946104d6866112b1565b60018060a01b03808554168752600185015416898701526002840154604087015260405192838092860161121b565b60608401526004810154608084015260405161052881610306816005860161121b565b60a0840152600681015460c0840152600781015460ff808216151560e08601526008918181841c16151561010087015260101c161515610120850152810154610140840152015461016082015261057f82866118ed565b5261058a81856118ed565b50600019811461059f5760010194919461040e565b634e487b7160e01b600052601160045260246000fd5b958093966105c161184f565b82828801015201959295610402565b34610106576020366003190112610106576004356000526003602052604060002060018060a01b038082541690600183015416916002810154604051916106258361061e816003850161121b565b03846112e8565b60ff60048201549361069c6040519561064c87610645816005890161121b565b03886112e8565b60068501549661068960078701549460096008890154980154986040519c8d9c8d5260208d015260408c01526101808060608d01528b0190611309565b9160808a015288820360a08a0152611309565b9460c0870152818116151560e0870152818160081c16151561010087015260101c1615156101208501526101408401526101608301520390f35b34610106576020366003190112610106576004356000818152600360205260409020805461070e906001600160a01b031615156118aa565b600781015460ff8160101c166107995760ff8116908161078b575b50156107385761001b916116f2565b60405162461bcd60e51b815260206004820152602560248201527f426f74682070617274696573206d7573742070726f766964652066756e647320604482015264199a5c9cdd60da1b6064820152608490fd5b60ff915060081c1683610729565b60405162461bcd60e51b8152602060048201526016602482015275151c98591948185b1c9958591e48195e1958dd5d195960521b6044820152606490fd5b60403660031901126101065760043560008181526003602052604090208054602435906001600160a01b039033908216036108f157610817823414611676565b60078301600160ff198254161790558160088401555b82541633146000146108c557827f1ccaadb63cb63b6bb5657ee1f006c7f7710edeebf91869610e32bc3898acf63860038401925b604051908152604060208201528061087e3395604083019061121b565b0390a3600781015460ff811690816108b6575b816108a7575b5061089e57005b61001b916116f2565b60ff915060101c161583610897565b905060ff8160081c1690610891565b827f1ccaadb63cb63b6bb5657ee1f006c7f7710edeebf91869610e32bc3898acf6386005840192610861565b6108fc823414611676565b6007830161010061ff001982541617905581600984015561082d565b34610106576000366003190112610106576040518060045480825282602080930160046000527f8a35acfbc15ff81a39ae7d344fd709f28e8600b4aa8c65c6b64bfe7fe36bd19b9260005b8582821061098e5750505061097a925003836112e8565b6103916040519282849384528301906111ad565b8554845260019586019588955093019201610963565b34610106576000366003190112610106576020600254604051908152f35b346101065760203660031901126101065760043560005260036020526020604060002060018060a01b0381541615159081610a34575b81610a22575b81610a0f575b506040519015158152f35b60ff91506007015460101c161582610a04565b600781015460081c60ff1691506109fe565b600781015460ff1691506109f8565b346101065760e0366003190112610106576004356001600160a01b0381169003610106576024356001600160a01b0381169003610106576064356001600160401b03811161010657610a99903690600401611180565b9060a4356001600160401b03811161010657610ab9903690600401611180565b919060c4356001600160401b03811161010657610ada903690600401611180565b5060025490610aea36878661161e565b6020815191012091610afd36878661161e565b60208151910120604051937f817c1fc8ac48a12db8704c713dd56ac7346d10195d5f9657178c4a9b0bbaefa2602086015260018060a01b0360043516604086015260018060a01b03602435166060860152604435608086015260a085015260843560c085015260e084015260e08352826101008101106001600160401b0361010085011117610234576101008301604052825160208401209061190160f01b610120850152610122840152610142830152604261010083015261010082016101808301106001600160401b0361018084011117610234576101808201604052610100820151610120830120604082013560001a90601b82106110f2575b83602060009460ff6080956101809586859a0152166101a084015280356101c084015201356101e08201528380520160015afa156110e65760405160208101906bffffffffffffffffffffffff198060043560601b16835260243560601b166034820152604435604882015285846068830137610c9b60a88287898201608435606882015281886088830137014260888201520360888101845201826112e8565b51902092604051610cab816112b1565b6001600160a01b03600435811682526024351660208201526044356040820152610cd636878661161e565b60608201526084356080820152610cee36838561161e565b60a08201524260c0820152600060e0820152600061010082015260006101208201526000610140820152600061016082015284600052600360205260406000209060018060a01b038151166bffffffffffffffffffffffff60a01b9081845416178355600183019060018060a01b03602084015116908254161790556040810151600283015560608101518051906001600160401b038211610234578190610d9960038601546111e1565b601f8111611093575b50602090601f831160011461102157600092611016575b50508160011b916000199060031b1c19161760038301555b6080810151600483015560a08101518051906001600160401b03821161023457610dfe60058501546111e1565b601f8111610fcf575b50602090601f8311600114610f595791806009949261016094600092610f4e575b50508160011b916000199060031b1c19161760058501555b60c081015160068501556007840160e08201511515815461ff0061010085015115159160ff62ff0000610120880151151560101b1694169062ffffff1916179160081b1617179055610140810151600885015501519101556004546801000000000000000081101561023457610f0893610ec3826001610ef294016004556113ed565b81549060031b9088821b91600019901b191617905560405196604435885260a0602089015260a0880191611655565b9160843560408701528583036060870152611655565b4260808401526001600160a01b0360243581169360043590911692917f5b4d9e81317d56b613b6cc8d26d7c151d8a6110ee5e146ff25c26ef76f274f39919081900390a4005b015190508b80610e28565b906005850160005260206000209160005b601f1985168110610fb7575092600994926001926101609583601f19811610610f9e575b505050811b016005850155610e40565b015160001960f88460031b161c191690558b8080610f8e565b91926020600181928685015181550194019201610f6a565b600585016000526020600020601f840160051c81016020851061100f575b601f830160051c82018110611003575050610e07565b60008155600101610fed565b5080610fed565b015190508980610db9565b9250600385016000526020600020906000935b601f1984168510611078576001945083601f1981161061105f575b505050811b016003830155610dd1565b015160001960f88460031b161c1916905589808061104f565b81810151835560209485019460019093019290910190611034565b909150600385016000526020600020601f840160051c8101602085106110df575b90849392915b601f830160051c820181106110d0575050610da2565b600081558594506001016110ba565b50806110b4565b6040513d6000823e3d90fd5b919060ff601b82011161059f579091601b90910190610bfa565b346101065760003660031901126101065760206040517f817c1fc8ac48a12db8704c713dd56ac7346d10195d5f9657178c4a9b0bbaefa28152f35b3461010657600036600319011261010657807f56c6ba3a31145b0cc8dd9f3e6622d7f449e320c5ef9204f09eecbd68ae810bd160209252f35b9181601f84011215610106578235916001600160401b038311610106576020838186019501011161010657565b90815180825260208080930193019160005b8281106111cd575050505090565b8351855293810193928101926001016111bf565b90600182811c92168015611211575b60208310146111fb57565b634e487b7160e01b600052602260045260246000fd5b91607f16916111f0565b906000929180549161122c836111e1565b91828252600193848116908160001461128e575060011461124e575b50505050565b90919394506000526020928360002092846000945b83861061127a575050505001019038808080611248565b805485870183015294019385908201611263565b9294505050602093945060ff191683830152151560051b01019038808080611248565b61018081019081106001600160401b0382111761023457604052565b604081019081106001600160401b0382111761023457604052565b90601f801991011681019081106001600160401b0382111761023457604052565b919082519283825260005b848110611335575050826000602080949584010152601f8019910116010190565b602081830181015184830182015201611314565b9060018060a01b038083511682526020830151166020820152604082015160408201526113a46113886060840151610180806060860152840190611309565b6080840151608084015260a084015183820360a0850152611309565b9160c081015160c083015260e0810151151560e0830152610100808201511515908301526101208082015115159083015261014080820151908301526101608091015191015290565b6004548110156114245760046000527f8a35acfbc15ff81a39ae7d344fd709f28e8600b4aa8c65c6b64bfe7fe36bd19b0190600090565b634e487b7160e01b600052603260045260246000fd5b6001600160401b0381116102345760051b60200190565b60ff811461148f5760ff811690601f821161147d5760405191611473836112cd565b8252602082015290565b604051632cd44ac360e21b8152600490fd5b506040516000818154916114a2836111e1565b8083529260019081811690811561152957506001146114cc575b506114c9925003826112e8565b90565b600080805291507f290decd9548b62a8d60345a988386fc84ba6bc95484008f6362f93160ef3e5635b84831061150e57506114c99350508101602001386114bc565b819350908160209254838589010152019101909184926114f5565b9050602092506114c994915060ff191682840152151560051b820101386114bc565b60ff811461156d5760ff811690601f821161147d5760405191611473836112cd565b50604051600081600191825492611583846111e1565b8084529381811690811561152957506001146115a657506114c9925003826112e8565b600081815291507fb10e2d527612073b26eecdfd717e6a320cf44b4afac2b0732d9fcbe2b7fa0cf65b8483106115e857506114c99350508101602001386114bc565b819350908160209254838589010152019101909184926115cf565b6001600160401b03811161023457601f01601f191660200190565b92919261162a82611603565b9161163860405193846112e8565b829481845281830111610106578281602093846000960137010152565b908060209392818452848401376000828201840152601f01601f1916010190565b1561167d57565b60405162461bcd60e51b815260206004820152601960248201527f496e636f72726563742045544820616d6f756e742073656e74000000000000006044820152606490fd5b3d156116ed573d906116d382611603565b916116e160405193846112e8565b82523d6000602084013e565b606090565b600782016201000062ff000019825416179055600182019060018060a01b0380835416936008810194600080808080948a54905af161172f6116c2565b501561180a57828254169080808060098601948554905af161174f6116c2565b50156117c5576117ba837f29f91d8d577399458efa70691d208d08a3a7b5d493e9c8d9c9afc343af54e5c694845416965416965491546005604051948594855260a060208601526117a660a086016003830161121b565b92604086015284830360608601520161121b565b3360808301520390a4565b60405162461bcd60e51b815260206004820152601d60248201527f455448207472616e7366657220746f2073656e646572206661696c65640000006044820152606490fd5b60405162461bcd60e51b815260206004820152601f60248201527f455448207472616e7366657220746f207265636569766572206661696c6564006044820152606490fd5b6040519061185c826112b1565b81610160600091828152826020820152826040820152606080820152826080820152606060a08201528260c08201528260e08201528261010082015282610120820152826101408201520152565b156118b157565b60405162461bcd60e51b8152602060048201526014602482015273151c98591948191bd95cc81b9bdd08195e1a5cdd60621b6044820152606490fd5b80518210156114245760209160051b010190565b6007015460ff8160101c166000146119195750600390565b60ff8116908180611956575b15611931575050600290565b8115611948575b501561194357600190565b600090565b60ff915060081c1638611938565b5060ff8160081c1661192556fea2646970667358221220be2d889a340430a2108684c727f2b2b0b79690383eb9dfe47d05453c82adc61d64736f6c634300081400338b73c3c69bb8fe3d512ecc4cf759cc79239f7b179b0ffacaa9a75d522b39400f",
  "linkReferences": {},
  "deployedLinkReferences": {}
}