{
  "_format": "hh-sol-artifact-1",
  "contractName": "TradeContract",
  "sourceName": "contracts/TradeContract.sol",
  "abi": [
    {
      "inputs": [],
      "stateMutability": "nonpayable",
      "type": "constructor"
    },
    {
      "inputs": [],
      "name": "InvalidShortString",
      "type": "error"
    },
    {
      "inputs": [
        {
          "internalType": "string",
          "name": "str",
          "type": "string"
        }
      ],
      "name": "StringTooLong",
      "type": "error"
    },
    {
      "anonymous": false,
      "inputs": [],
      "name": "EIP712DomainChanged",
      "type": "event"
    },
    {
      "anonymous": false,
      "inputs": [
        {
          "indexed": true,
          "internalType": "bytes32",
          "name": "tradeHash",
          "type": "bytes32"
        },
        {
          "indexed": true,
          "internalType": "address",
          "name": "funder",
          "type": "address"
        },
        {
          "indexed": false,
          "internalType": "uint256",
          "name": "amount",
          "type": "uint256"
        },
        {
          "indexed": false,
          "internalType": "string",
          "name": "currency",
          "type": "string"
        }
      ],
      "name": "FundsReceived",
      "type": "event"
    },
    {
      "anonymous": false,
      "inputs": [
        {
          "indexed": true,
          "internalType": "bytes32",
          "name": "tradeHash",
          "type": "bytes32"
        },
        {
          "indexed": true,
          "internalType": "address",
          "name": "senderAddress",
          "type": "address"
        },
        {
          "indexed": true,
          "internalType": "address",
          "name": "receiverAddress",
          "type": "address"
        },
        {
          "indexed": false,
          "internalType": "uint256",
          "name": "fromAmount",
          "type": "uint256"
        },
        {
          "indexed": false,
          "internalType": "string",
          "name": "fromCurrency",
          "type": "string"
        },
        {
          "indexed": false,
          "internalType": "uint256",
          "name": "toAmount",
          "type": "uint256"
        },
        {
          "indexed": false,
          "internalType": "string",
          "name": "toCurrency",
          "type": "string"
        },
        {
          "indexed": false,
          "internalType": "address",
          "name": "executor",
          "type": "address"
        }
      ],
      "name": "TokensSwapped",
      "type": "event"
    },
    {
      "anonymous": false,
      "inputs": [
        {
          "indexed": true,
          "internalType": "bytes32",
          "name": "tradeHash",
          "type": "bytes32"
        },
        {
          "indexed": true,
          "internalType": "address",
          "name": "senderAddress",
          "type": "address"
        },
        {
          "indexed": true,
          "internalType": "address",
          "name": "receiverAddress",
          "type": "address"
        },
        {
          "indexed": false,
          "internalType": "uint256",
          "name": "fromAmount",
          "type": "uint256"
        },
        {
          "indexed": false,
          "internalType": "string",
          "name": "fromCurrency",
          "type": "string"
        },
        {
          "indexed": false,
          "internalType": "uint256",
          "name": "toAmount",
          "type": "uint256"
        },
        {
          "indexed": false,
          "internalType": "string",
          "name": "toCurrency",
          "type": "string"
        },
        {
          "indexed": false,
          "internalType": "uint256",
          "name": "timestamp",
          "type": "uint256"
        }
      ],
      "name": "TradeRecorded",
      "type": "event"
    },
    {
      "inputs": [],
      "name": "DOMAIN_SEPARATOR",
      "outputs": [
        {
          "internalType": "bytes32",
          "name": "",
          "type": "bytes32"
        }
      ],
      "stateMutability": "view",
      "type": "function"
    },
    {
      "inputs": [],
      "name": "FUNDS_TYPEHASH",
      "outputs": [
        {
          "internalType": "bytes32",
          "name": "",
          "type": "bytes32"
        }
      ],
      "stateMutability": "view",
      "type": "function"
    },
    {
      "inputs": [],
      "name": "TRADE_TYPEHASH",
      "outputs": [
        {
          "internalType": "bytes32",
          "name": "",
          "type": "bytes32"
        }
      ],
      "stateMutability": "view",
      "type": "function"
    },
    {
      "inputs": [],
      "name": "eip712Domain",
      "outputs": [
        {
          "internalType": "bytes1",
          "name": "fields",
          "type": "bytes1"
        },
        {
          "internalType": "string",
          "name": "name",
          "type": "string"
        },
        {
          "internalType": "string",
          "name": "version",
          "type": "string"
        },
        {
          "internalType": "uint256",
          "name": "chainId",
          "type": "uint256"
        },
        {
          "internalType": "address",
          "name": "verifyingContract",
          "type": "address"
        },
        {
          "internalType": "bytes32",
          "name": "salt",
          "type": "bytes32"
        },
        {
          "internalType": "uint256[]",
          "name": "extensions",
          "type": "uint256[]"
        }
      ],
      "stateMutability": "view",
      "type": "function"
    },
    {
      "inputs": [],
      "name": "getAllStoredTrades",
      "outputs": [
        {
          "internalType": "bytes32[]",
          "name": "tradeHashesArray",
          "type": "bytes32[]"
        },
        {
          "components": [
            {
              "internalType": "address",
              "name": "senderAddress",
              "type": "address"
            },
            {
              "internalType": "address",
              "name": "receiverAddress",
              "type": "address"
            },
            {
              "internalType": "uint256",
              "name": "fromAmount",
              "type": "uint256"
            },
            {
              "internalType": "string",
              "name": "fromCurrency",
              "type": "string"
            },
            {
              "internalType": "uint256",
              "name": "toAmount",
              "type": "uint256"
            },
            {
              "internalType": "string",
              "name": "toCurrency",
              "type": "string"
            },
            {
              "internalType": "uint256",
              "name": "timestamp",
              "type": "uint256"
            },
            {
              "internalType": "bool",
              "name": "fromFunded",
              "type": "bool"
            },
            {
              "internalType": "bool",
              "name": "toFunded",
              "type": "bool"
            },
            {
              "internalType": "bool",
              "name": "executed",
              "type": "bool"
            },
            {
              "internalType": "uint256",
              "name": "fromFundedAmount",
              "type": "uint256"
            },
            {
              "internalType": "uint256",
              "name": "toFundedAmount",
              "type": "uint256"
            }
          ],
          "internalType": "struct TradeContract.StoredTrade[]",
          "name": "tradesArray",
          "type": "tuple[]"
        }
      ],
      "stateMutability": "view",
      "type": "function"
    },
    {
      "inputs": [],
      "name": "getAllTradeHashes",
      "outputs": [
        {
          "internalType": "bytes32[]",
          "name": "",
          "type": "bytes32[]"
        }
      ],
      "stateMutability": "view",
      "type": "function"
    },
    {
      "inputs": [
        {
          "internalType": "bytes32",
          "name": "tradeHash",
          "type": "bytes32"
        }
      ],
      "name": "getStoredTrade",
      "outputs": [
        {
          "components": [
            {
              "internalType": "address",
              "name": "senderAddress",
              "type": "address"
            },
            {
              "internalType": "address",
              "name": "receiverAddress",
              "type": "address"
            },
            {
              "internalType": "uint256",
              "name": "fromAmount",
              "type": "uint256"
            },
            {
              "internalType": "string",
              "name": "fromCurrency",
              "type": "string"
            },
            {
              "internalType": "uint256",
              "name": "toAmount",
              "type": "uint256"
            },
            {
              "internalType": "string",
              "name": "toCurrency",
              "type": "string"
            },
            {
              "internalType": "uint256",
              "name": "timestamp",
              "type": "uint256"
            },
            {
              "internalType": "bool",
              "name": "fromFunded",
              "type": "bool"
            },
            {
              "internalType": "bool",
              "name": "toFunded",
              "type": "bool"
            },
            {
              "internalType": "bool",
              "name": "executed",
              "type": "bool"
            },
            {
              "internalType": "uint256",
              "name": "fromFundedAmount",
              "type": "uint256"
            },
            {
              "internalType": "uint256",
              "name": "toFundedAmount",
              "type": "uint256"
            }
          ],
          "internalType": "struct TradeContract.StoredTrade",
          "name": "",
          "type": "tuple"
        }
      ],
      "stateMutability": "view",
      "type": "function"
    },
    {
      "inputs": [],
      "name": "getTradeCount",
      "outputs": [
        {
          "internalType": "uint256",
          "name": "",
          "type": "uint256"
        }
      ],
      "stateMutability": "view",
      "type": "function"
    },
    {
      "inputs": [
        {
          "internalType": "bytes32",
          "name": "tradeHash",
          "type": "bytes32"
        }
      ],
      "name": "getTradeStatus",
      "outputs": [
        {
          "internalType": "uint8",
          "name": "",
          "type": "uint8"
        }
      ],
      "stateMutability": "view",
      "type": "function"
    },
    {
      "inputs": [
        {
          "internalType": "bytes32",
          "name": "tradeHash",
          "type": "bytes32"
        }
      ],
      "name": "isTradeReady",
      "outputs": [
        {
          "internalType": "bool",
          "name": "",
          "type": "bool"
        }
      ],
      "stateMutability": "view",
      "type": "function"
    },
    {
      "inputs": [
        {
          "internalType": "bytes32",
          "name": "tradeHash",
          "type": "bytes32"
        },
        {
          "internalType": "uint256",
          "name": "amount",
          "type": "uint256"
        }
      ],
      "name": "provideFunds",
      "outputs": [],
      "stateMutability": "payable",
      "type": "function"
    },
    {
      "inputs": [
        {
          "internalType": "address",
          "name": "senderAddress",
          "type": "address"
        },
        {
          "internalType": "address",
          "name": "receiverAddress",
          "type": "address"
        },
        {
          "internalType": "uint256",
          "name": "fromAmount",
          "type": "uint256"
        },
        {
          "internalType": "string",
          "name": "fromCurrency",
          "type": "string"
        },
        {
          "internalType": "uint256",
          "name": "toAmount",
          "type": "uint256"
        },
        {
          "internalType": "string",
          "name": "toCurrency",
          "type": "string"
        },
        {
          "internalType": "bytes",
          "name": "signature",
          "type": "bytes"
        }
      ],
      "name": "recordTrade",
      "outputs": [],
      "stateMutability": "nonpayable",
      "type": "function"
    },
    {
      "inputs": [
        {
          "internalType": "address",
          "name": "senderAddress",
          "type": "address"
        },
        {
          "internalType": "address",
          "name": "receiverAddress",
          "type": "address"
        },
        {
          "internalType": "uint256",
          "name": "fromAmount",
          "type": "uint256"
        },
        {
          "internalType": "string",
          "name": "fromCurrency",
          "type": "string"
        },
        {
          "internalType": "uint256",
          "name": "toAmount",
          "type": "uint256"
        },
        {
          "internalType": "string",
          "name": "toCurrency",
          "type": "string"
        },
        {
          "internalType": "bytes",
          "name": "signature",
          "type": "bytes"
        }
      ],
      "name": "recordTradeWithoutSig",
      "outputs": [],
      "stateMutability": "nonpayable",
      "type": "function"
    },
    {
      "inputs": [
        {
          "internalType": "bytes32",
          "name": "",
          "type": "bytes32"
        }
      ],
      "name": "storedTrades",
      "outputs": [
        {
          "internalType": "address",
          "name": "senderAddress",
          "type": "address"
        },
        {
          "internalType": "address",
          "name": "receiverAddress",
          "type": "address"
        },
        {
          "internalType": "uint256",
          "name": "fromAmount",
          "type": "uint256"
        },
        {
          "internalType": "string",
          "name": "fromCurrency",
          "type": "string"
        },
        {
          "internalType": "uint256",
          "name": "toAmount",
          "type": "uint256"
        },
        {
          "internalType": "string",
          "name": "toCurrency",
          "type": "string"
        },
        {
          "internalType": "uint256",
          "name": "timestamp",
          "type": "uint256"
        },
        {
          "internalType": "bool",
          "name": "fromFunded",
          "type": "bool"
        },
        {
          "internalType": "bool",
          "name": "toFunded",
          "type": "bool"
        },
        {
          "internalType": "bool",
          "name": "executed",
          "type": "bool"
        },
        {
          "internalType": "uint256",
          "name": "fromFundedAmount",
          "type": "uint256"
        },
        {
          "internalType": "uint256",
          "name": "toFundedAmount",
          "type": "uint256"
        }
      ],
      "stateMutability": "view",
      "type": "function"
    },
    {
      "inputs": [
        {
          "internalType": "bytes32",
          "name": "tradeHash",
          "type": "bytes32"
        }
      ],
      "name": "swapTokens",
      "outputs": [],
      "stateMutability": "nonpayable",
      "type": "function"
    },
    {
      "inputs": [
        {
          "internalType": "uint256",
          "name": "",
          "type": "uint256"
        }
      ],
      "name": "tradeHashes",
      "outputs": [
        {
          "internalType": "bytes32",
          "name": "",
          "type": "bytes32"
        }
      ],
      "stateMutability": "view",
      "type": "function"
    },
    {
      "stateMutability": "payable",
      "type": "receive"
    }
  ],
  "bytecode": "0x610160604081815234620001af576200001882620001b4565b6004825260209182810191630a0d28cb60e31b8084528151946200003c86620001b4565b6001865262000170620000dd60016004848a0195603160f81b96878152620000648a6200020a565b9a6101209b8c52620000768d620003dd565b9a6101409b8c525190209b8c60e0525190209a6101009b808d524660a0528951958691898301933091469186926080929594919560a08501966000805160206200239f833981519152865260208601526040850152606084015260018060a01b0316910152565b0394620000f3601f1996878101835282620001e6565b5190206080523060c0528588516200010b81620001b4565b8381520190815220948487516200012281620001b4565b838152019081522085516000805160206200239f833981519152948101948552602085019590955260408401524660608401523060808401529192918260a0850103908101835282620001e6565b5190206002555191611e1493846200058b853960805184505060a05184505060c05184505060e051845050518350505182610140015251816101690152f35b600080fd5b604081019081106001600160401b03821117620001d057604052565b634e487b7160e01b600052604160045260246000fd5b601f909101601f19168101906001600160401b03821190821017620001d057604052565b80516020919082811015620002a9575090601f8251116200024857808251920151908083106200023957501790565b82600019910360031b1b161790565b90604051809263305a27a960e01b82528060048301528251908160248401526000935b8285106200028f575050604492506000838284010152601f80199101168101030190fd5b84810182015186860160440152938101938593506200026b565b6001600160401b038111620001d0576000928354926001938481811c91168015620003d2575b83821014620003be57601f811162000388575b5081601f8411600114620003215750928293918392869462000315575b50501b916000199060031b1c191617905560ff90565b015192503880620002ff565b919083601f1981168780528488209488905b888383106200036d575050501062000353575b505050811b01905560ff90565b015160001960f88460031b161c1916905538808062000346565b85870151885590960195948501948793509081019062000333565b85805284601f848820920160051c820191601f860160051c015b828110620003b2575050620002e2565b878155018590620003a2565b634e487b7160e01b86526022600452602486fd5b90607f1690620002cf565b8051602090818110156200046b5750601f8251116200040a57808251920151908083106200023957501790565b90604051809263305a27a960e01b82528060048301528251908160248401526000935b82851062000451575050604492506000838284010152601f80199101168101030190fd5b84810182015186860160440152938101938593506200042d565b9192916001600160401b038111620001d05760019182548381811c911680156200057f575b828210146200056957601f811162000530575b5080601f8311600114620004e3575081929394600092620004d7575b5050600019600383901b1c191690821b17905560ff90565b015190503880620004bf565b90601f198316958460005282600020926000905b8882106200051857505083859697106200035357505050811b01905560ff90565b808785968294968601518155019501930190620004f7565b8360005283601f83600020920160051c820191601f850160051c015b8281106200055c575050620004a3565b600081550184906200054c565b634e487b7160e01b600052602260045260246000fd5b90607f16906200049056fe6080604052600436101561001b575b361561001957600080fd5b005b60003560e01c80630998ec19146110d75780631517cfb01461109c5780632bba58ac146110615780633178ad9c14610a425780633184ff8b146109c15780633644e515146109a3578063382d08fe146109175780633e0df32a146107d657806346bbc6f4146106d55780635ca85e9b146105cf5780636850bc60146103945780636c42043914610293578063774073991461024957806384b0196e1461012a578063a3031b771461010c5763df5f0c750361000e573461010757602036600319011261010757600435600454811015610107576100f9602091611787565b90546040519160031b1c8152f35b600080fd5b34610107576000366003190112610107576020600454604051908152f35b34610107576000366003190112610107576101647f00000000000000000000000000000000000000000000000000000000000000006117eb565b61018d7f00000000000000000000000000000000000000000000000000000000000000006118e5565b6040516020808201928284106001600160401b038511176102335791816101e685946101d8979660405260008452604051978897600f60f81b895260e0858a015260e08901906116a3565b9087820360408901526116a3565b91466060870152306080870152600060a087015285830360c0870152519182815201929160005b82811061021c57505050500390f35b83518552869550938101939281019260010161020d565b634e487b7160e01b600052604160045260246000fd5b346101075760203660031901126101075760043560005260036020526020610288604060002061028360018060a01b038254161515611d05565b611d5c565b60ff60405191168152f35b34610107576020366003190112610107576102ac611caa565b50600435600052600360205261039060406000206009604051916102cf8361164b565b60018060a01b0380825416845260018201541660208401526002810154604084015260405161030c8161030581600386016115b5565b0382611682565b60608401526004810154608084015260405161032f8161030581600586016115b5565b60a0840152600681015460c084015260ff6007820154818116151560e0860152818160081c16151561010086015260101c161515610120840152600881015461014084015201546101608201526040519182916020835260208301906116e3565b0390f35b34610107576000366003190112610107576004546103b1816117d4565b6103be6040519182611682565b818152601f1991826103cf826117d4565b019260209336858501376103e2826117d4565b916103f06040519384611682565b808352816103fd826117d4565b0160005b8181106105b457505060005b81811061048757505061042b60405193604085526040850190611547565b938385038185015282519081865280860181808460051b8901019501936000975b8489106104595787870388f35b9091929394958480610475838686600196030188528a516116e3565b9801940198019791909493929461044c565b61049381969396611787565b9054600391821b1c6104a58388611d48565b526104af82611787565b905490821b1c60005280845260096040600020610305610504604051946104d58661164b565b60018060a01b0380855416875260018501541689870152600284015460408701526040519283809286016115b5565b6060840152600481015460808401526040516105278161030581600586016115b5565b60a0840152600681015460c0840152600781015460ff808216151560e08601526008918181841c16151561010087015260101c161515610120850152810154610140840152015461016082015261057e8286611d48565b526105898185611d48565b50600019811461059e5760010194919461040d565b634e487b7160e01b600052601160045260246000fd5b958093966105c0611caa565b82828801015201959295610401565b34610107576020366003190112610107576004356000526003602052604060002060018060a01b038082541690600183015416916002810154604051916106248361061d81600385016115b5565b0384611682565b60ff60048201549361069b6040519561064b8761064481600589016115b5565b0388611682565b60068501549661068860078701549460096008890154980154986040519c8d9c8d5260208d015260408c01526101808060608d01528b01906116a3565b9160808a015288820360a08a01526116a3565b9460c0870152818116151560e0870152818160081c16151561010087015260101c1615156101208501526101408401526101608301520390f35b34610107576020366003190112610107576004356000818152600360205260409020805461070d906001600160a01b03161515611d05565b600781015460ff8160101c166107985760ff8116908161078a575b50156107375761001991611b4d565b60405162461bcd60e51b815260206004820152602560248201527f426f74682070617274696573206d7573742070726f766964652066756e647320604482015264199a5c9cdd60da1b6064820152608490fd5b60ff915060081c1683610728565b60405162461bcd60e51b8152602060048201526016602482015275151c98591948185b1c9958591e48195e1958dd5d195960521b6044820152606490fd5b60403660031901126101075760043560008181526003602052604090208054602435906001600160a01b039033908216036108f057610816823414611ad1565b60078301600160ff198254161790558160088401555b82541633146000146108c457827f1ccaadb63cb63b6bb5657ee1f006c7f7710edeebf91869610e32bc3898acf63860038401925b604051908152604060208201528061087d339560408301906115b5565b0390a3600781015460ff811690816108b5575b816108a6575b5061089d57005b61001991611b4d565b60ff915060101c161583610896565b905060ff8160081c1690610890565b827f1ccaadb63cb63b6bb5657ee1f006c7f7710edeebf91869610e32bc3898acf6386005840192610860565b6108fb823414611ad1565b6007830161010061ff001982541617905581600984015561082c565b34610107576000366003190112610107576040518060045480825282602080930160046000527f8a35acfbc15ff81a39ae7d344fd709f28e8600b4aa8c65c6b64bfe7fe36bd19b9260005b8582821061098d5750505061097992500383611682565b610390604051928284938452830190611547565b8554845260019586019588955093019201610962565b34610107576000366003190112610107576020600254604051908152f35b346101075760203660031901126101075760043560005260036020526020604060002060018060a01b0381541615159081610a33575b81610a21575b81610a0e575b506040519015158152f35b60ff91506007015460101c161582610a03565b600781015460081c60ff1691506109fd565b600781015460ff1691506109f7565b3461010757610a50366114b6565b506002979495979693969291925490610a6a36888b611a01565b6020815191012091610a7d368686611a01565b60208151910120604051937f817c1fc8ac48a12db8704c713dd56ac7346d10195d5f9657178c4a9b0bbaefa2602086015260018060a01b038d16604086015260018060a01b038916606086015287608086015260a08501528960c085015260e084015260e08352826101008101106001600160401b0361010085011117610233576101008301604052825160208401209061190160f01b610120850152610122840152610142830152604261010083015261010082016101808301106001600160401b0361018084011117610233576101808201604052610100820151610120830120604082013560001a90601b8210611047575b83602060009460ff6080956101809586859a0152166101a084015280356101c084015201356101e08201528380520160015afa1561103b576000516001600160a01b03898116911603610ff65782610bec85610bde8b86868c8c8f604051998a98429760208b016119b8565b03601f198101835282611682565b6020815191012095604051610c008161164b565b6001600160a01b038a811682528616602082015260408101859052610c2636888b611a01565b6060820152816080820152610c3c368585611a01565b60a08201524260c0820152600060e0820152600061010082015260006101208201526000610140820152600061016082015287600052600360205260406000209060018060a01b038151166001600160601b0360a01b9081845416178355600183019060018060a01b03602084015116908254161790556040810151600283015560608101518051906001600160401b038211610233578190610ce2600386015461157b565b601f8111610fa3575b50602090601f8311600114610f3157600092610f26575b50508160011b916000199060031b1c19161760038301555b6080810151600483015560a08101518051906001600160401b03821161023357610d47600585015461157b565b601f8111610edf575b50602090601f8311600114610e4f57610e3f97959383600080516020611dbf8339815191529c9b9a98969460099461016094600092610e44575b50508160011b916000199060031b1c19161760058501555b60c08101516006850155610e0760078501610dcf60e08401511515829060ff801983541691151516179055565b610100830151815461ff00191690151560081b61ff0016178155610120830151815462ff0000191690151560101b62ff000016179055565b61014081015160088501550151910155610e2089611a38565b6040516001600160a01b039687169b9096169995968796429588611a95565b0390a4005b015190503880610d8a565b906005850160005260206000209160005b601f1985168110610ec757509360018460099461016094600080516020611dbf8339815191529f9e9d9b999798610e3f9d9b99601f19811610610eae575b505050811b016005850155610da2565b015160001960f88460031b161c19169055388080610e9e565b91926020600181928685015181550194019201610e60565b600585016000526020600020601f840160051c810160208510610f1f575b601f830160051c82018110610f13575050610d50565b60008155600101610efd565b5080610efd565b015190508d80610d02565b9250600385016000526020600020906000935b601f1984168510610f88576001945083601f19811610610f6f575b505050811b016003830155610d1a565b015160001960f88460031b161c191690558d8080610f5f565b81810151835560209485019460019093019290910190610f44565b909150600385016000526020600020601f840160051c810160208510610fef575b90849392915b601f830160051c82018110610fe0575050610ceb565b60008155859450600101610fca565b5080610fc4565b60405162461bcd60e51b815260206004820152601e60248201527f5472616465206d757374206265207369676e65642062792073656e64657200006044820152606490fd5b6040513d6000823e3d90fd5b919060ff601b82011161059e579091601b90910190610b72565b346101075760003660031901126101075760206040517f817c1fc8ac48a12db8704c713dd56ac7346d10195d5f9657178c4a9b0bbaefa28152f35b346101075760003660031901126101075760206040517f56c6ba3a31145b0cc8dd9f3e6622d7f449e320c5ef9204f09eecbd68ae810bd18152f35b34610107576110e5366114b6565b5050908461111d8861110d8b8686898b9c9e9b60209e9b9e608001988c60809842978c6119b8565b03601f1981016080526080611682565b60805190209560405161112f8161164b565b6001600160a01b038a81168252861660208201526040810185905261115536888b611a01565b606082015281608082015261116b368585611a01565b60a08201524260c0820152600060e0820152600061010082015260006101208201526000610140820152600061016082015287600052600360205260406000209060018060a01b038151166001600160601b0360a01b9081845416178355600183019060018060a01b03602084015116908254161790556040810151600283015560608101518051906001600160401b038211610233578190611211600386015461157b565b601f8111611436575b50602090601f83116001146113c4576000926113b9575b50508160011b916000199060031b1c19161760038301555b6080810151600483015560a08101518051906001600160401b03821161023357611276600585015461157b565b601f8111611372575b50602090601f83116001146112fc57610e3f97959383600080516020611dbf8339815191529c9b9a98969460099461016094600092610e445750508160011b916000199060031b1c191617600585015560c08101516006850155610e0760078501610dcf60e08401511515829060ff801983541691151516179055565b906005850160005260206000209160005b601f198516811061135a57509360018460099461016094600080516020611dbf8339815191529f9e9d9b999798610e3f9d9b99601f19811610610eae57505050811b016005850155610da2565b9192602060018192868501518155019401920161130d565b600585016000526020600020601f840160051c8101602085106113b2575b601f830160051c820181106113a657505061127f565b60008155600101611390565b5080611390565b015190508d80611231565b9250600385016000526020600020906000935b601f198416851061141b576001945083601f19811610611402575b505050811b016003830155611249565b015160001960f88460031b161c191690558d80806113f2565b818101518355602094850194600190930192909101906113d7565b909150600385016000526020600020601f840160051c810160208510611482575b90849392915b601f830160051c8201811061147357505061121a565b6000815585945060010161145d565b5080611457565b9181601f84011215610107578235916001600160401b038311610107576020838186019501011161010757565b9060e0600319830112610107576001600160a01b03916004358381168103610107579260243590811681036101075791604435916001600160401b0391606435838111610107578261150a91600401611489565b939093926084359260a435838111610107578261152991600401611489565b9390939260c4359182116101075761154391600401611489565b9091565b90815180825260208080930193019160005b828110611567575050505090565b835185529381019392810192600101611559565b90600182811c921680156115ab575b602083101461159557565b634e487b7160e01b600052602260045260246000fd5b91607f169161158a565b90600092918054916115c68361157b565b91828252600193848116908160001461162857506001146115e8575b50505050565b90919394506000526020928360002092846000945b8386106116145750505050010190388080806115e2565b8054858701830152940193859082016115fd565b9294505050602093945060ff191683830152151560051b010190388080806115e2565b61018081019081106001600160401b0382111761023357604052565b604081019081106001600160401b0382111761023357604052565b90601f801991011681019081106001600160401b0382111761023357604052565b919082519283825260005b8481106116cf575050826000602080949584010152601f8019910116010190565b6020818301810151848301820152016116ae565b9060018060a01b0380835116825260208301511660208201526040820151604082015261173e61172260608401516101808060608601528401906116a3565b6080840151608084015260a084015183820360a08501526116a3565b9160c081015160c083015260e0810151151560e0830152610100808201511515908301526101208082015115159083015261014080820151908301526101608091015191015290565b6004548110156117be5760046000527f8a35acfbc15ff81a39ae7d344fd709f28e8600b4aa8c65c6b64bfe7fe36bd19b0190600090565b634e487b7160e01b600052603260045260246000fd5b6001600160401b0381116102335760051b60200190565b60ff81146118295760ff811690601f8211611817576040519161180d83611667565b8252602082015290565b604051632cd44ac360e21b8152600490fd5b5060405160008181549161183c8361157b565b808352926001908181169081156118c35750600114611866575b5061186392500382611682565b90565b600080805291507f290decd9548b62a8d60345a988386fc84ba6bc95484008f6362f93160ef3e5635b8483106118a85750611863935050810160200138611856565b8193509081602092548385890101520191019091849261188f565b90506020925061186394915060ff191682840152151560051b82010138611856565b60ff81146119075760ff811690601f8211611817576040519161180d83611667565b5060405160008160019182549261191d8461157b565b808452938181169081156118c35750600114611940575061186392500382611682565b600081815291507fb10e2d527612073b26eecdfd717e6a320cf44b4afac2b0732d9fcbe2b7fa0cf65b8483106119825750611863935050810160200138611856565b81935090816020925483858901015201910190918492611969565b6001600160401b03811161023357601f01601f191660200190565b919385938998959260889b9a97936001600160601b0319809260601b16865260601b16601485015260288401526048830137019260488401526068830137019060688201520190565b929192611a0d8261199d565b91611a1b6040519384611682565b829481845281830111610107578281602093846000960137010152565b6004546801000000000000000081101561023357806001611a5c9201600455611787565b819291549060031b91821b91600019901b1916179055565b908060209392818452848401376000828201840152601f01601f1916010190565b97969591611ab990611acc9594608097938b5260a060208c015260a08b0191611a74565b9260408901528783036060890152611a74565b930152565b15611ad857565b60405162461bcd60e51b815260206004820152601960248201527f496e636f72726563742045544820616d6f756e742073656e74000000000000006044820152606490fd5b3d15611b48573d90611b2e8261199d565b91611b3c6040519384611682565b82523d6000602084013e565b606090565b600782016201000062ff000019825416179055600182019060018060a01b0380835416936008810194600080808080948a54905af1611b8a611b1d565b5015611c6557828254169080808060098601948554905af1611baa611b1d565b5015611c2057611c15837f29f91d8d577399458efa70691d208d08a3a7b5d493e9c8d9c9afc343af54e5c694845416965416965491546005604051948594855260a06020860152611c0160a08601600383016115b5565b9260408601528483036060860152016115b5565b3360808301520390a4565b60405162461bcd60e51b815260206004820152601d60248201527f455448207472616e7366657220746f2073656e646572206661696c65640000006044820152606490fd5b60405162461bcd60e51b815260206004820152601f60248201527f455448207472616e7366657220746f207265636569766572206661696c6564006044820152606490fd5b60405190611cb78261164b565b81610160600091828152826020820152826040820152606080820152826080820152606060a08201528260c08201528260e08201528261010082015282610120820152826101408201520152565b15611d0c57565b60405162461bcd60e51b8152602060048201526014602482015273151c98591948191bd95cc81b9bdd08195e1a5cdd60621b6044820152606490fd5b80518210156117be5760209160051b010190565b6007015460ff8160101c16600014611d745750600390565b60ff8116908180611db1575b15611d8c575050600290565b8115611da3575b5015611d9e57600190565b600090565b60ff915060081c1638611d93565b5060ff8160081c16611d8056fe5b4d9e81317d56b613b6cc8d26d7c151d8a6110ee5e146ff25c26ef76f274f39a264697066735822122064ea364a06302d1889ed15f4d2a37389109710620f7d5b12171e3916eb13693864736f6c634300081400338b73c3c69bb8fe3d512ecc4cf759cc79239f7b179b0ffacaa9a75d522b39400f",
  "linkReferences": {},
  "deployedLinkReferences": {}
}